{
  "contractName": "BCHHandled",
  "abi": [
    {
      "inputs": [
        {
          "name": "bchAddress",
          "type": "address"
        }
      ],
      "payable": false,
      "stateMutability": "nonpayable",
      "type": "constructor"
    },
    {
      "anonymous": false,
      "inputs": [
        {
          "indexed": true,
          "name": "to",
          "type": "address"
        },
        {
          "indexed": false,
          "name": "state",
          "type": "bool"
        }
      ],
      "name": "BchApproval",
      "type": "event"
    },
    {
      "constant": true,
      "inputs": [
        {
          "name": "wallet",
          "type": "address"
        }
      ],
      "name": "isBchHandled",
      "outputs": [
        {
          "name": "",
          "type": "bool"
        }
      ],
      "payable": false,
      "stateMutability": "view",
      "type": "function"
    },
    {
      "constant": false,
      "inputs": [],
      "name": "bchAuthorize",
      "outputs": [
        {
          "name": "",
          "type": "bool"
        }
      ],
      "payable": false,
      "stateMutability": "nonpayable",
      "type": "function"
    },
    {
      "constant": false,
      "inputs": [],
      "name": "bchRevoke",
      "outputs": [
        {
          "name": "",
          "type": "bool"
        }
      ],
      "payable": false,
      "stateMutability": "nonpayable",
      "type": "function"
    }
  ],
  "bytecode": "0x608060405234801561001057600080fd5b5060405160208061030a8339810180604052602081101561003057600080fd5b8101908080519060200190929190505050806000806101000a81548173ffffffffffffffffffffffffffffffffffffffff021916908373ffffffffffffffffffffffffffffffffffffffff16021790555050610279806100916000396000f3fe608060405260043610610057576000357c0100000000000000000000000000000000000000000000000000000000900463ffffffff168063102bf9b91461005c5780631b1a48f5146100c55780639ea605c3146100f4575b600080fd5b34801561006857600080fd5b506100ab6004803603602081101561007f57600080fd5b81019080803573ffffffffffffffffffffffffffffffffffffffff169060200190929190505050610123565b604051808215151515815260200191505060405180910390f35b3480156100d157600080fd5b506100da610179565b604051808215151515815260200191505060405180910390f35b34801561010057600080fd5b5061010961018a565b604051808215151515815260200191505060405180910390f35b6000600160008373ffffffffffffffffffffffffffffffffffffffff1673ffffffffffffffffffffffffffffffffffffffff16815260200190815260200160002060009054906101000a900460ff169050919050565b6000610185600061019b565b905090565b6000610196600161019b565b905090565b60003373ffffffffffffffffffffffffffffffffffffffff167f387797210916a5c520f420b0ef09d9bee966f0728f388056ec40f6ac4a8a81ef83600160003373ffffffffffffffffffffffffffffffffffffffff1673ffffffffffffffffffffffffffffffffffffffff16815260200190815260200160002060006101000a81548160ff0219169083151502179055604051808215151515815260200191505060405180910390a26001905091905056fea165627a7a7230582080f870ec53d2ea6dde671392e4fbee09e6230a7b30237666023d2ab5413515720029",
  "source": "/**\n * This smart contract code is Copyright 2018 WiBX. For more information see https://wibx.io\n *\n * Licensed under the Apache License, version 2.0: https://github.com/wibxcoin/Contracts/LICENSE.txt\n */\n\npragma solidity 0.5.0;\n\n/**\n * @title BCH Handled tokens contract\n *\n * @dev Addresses owned by BCH\n */\ncontract BCHHandled\n{\n    /**\n     * The BCH module address.\n     */\n    address private _bchAddress;\n\n    /**\n     * Accounts managed by BCH.\n     */\n    mapping (address => bool) private _bchAllowed;\n\n    /**\n     * BCH Approval event\n     */\n    event BchApproval(address indexed to, bool state);\n\n    constructor(address bchAddress) public\n    {\n        _bchAddress = bchAddress;\n    }\n\n    /**\n     * @dev Check if the address is handled by BCH.\n     *\n     * @param wallet The address to check\n     */\n    function isBchHandled(address wallet) public view returns (bool)\n    {\n        return _bchAllowed[wallet];\n    }\n\n    /**\n     * @dev Authorize the full control of BCH.\n     */\n    function bchAuthorize() public returns (bool)\n    {\n        return _changeState(true);\n    }\n\n    /**\n     * @dev Revoke the BCH access.\n     */\n    function bchRevoke() public returns (bool)\n    {\n        return _changeState(false);\n    }\n\n    /**\n     * @dev Check if the transaction can be handled by BCH and its authenticity.\n     *\n     * @param from The spender address\n     */\n    function canBchHandle(address from) internal view returns (bool)\n    {\n        return isBchHandled(from) && msg.sender == _bchAddress;\n    }\n\n    /**\n     * @dev Change the BCH ownership state\n     *\n     * @param state The new state\n     */\n    function _changeState(bool state) private returns (bool)\n    {\n        emit BchApproval(msg.sender, _bchAllowed[msg.sender] = state);\n\n        return true;\n    }\n}",
  "sourcePath": "/home/gabriel/Documents/gitViews/Contracts_PROD/wibx/contracts/BCHHandled.sol",
  "compiler": {
    "name": "solc",
    "version": "0.5.0+commit.1d4f565a.Emscripten.clang"
  },
  "schemaVersion": "3.0.1",
  "updatedAt": "2019-04-22T03:57:17.157Z",
  "devdoc": {
    "details": "Addresses owned by BCH",
    "methods": {
      "bchAuthorize()": {
        "details": "Authorize the full control of BCH."
      },
      "bchRevoke()": {
        "details": "Revoke the BCH access."
      },
      "isBchHandled(address)": {
        "details": "Check if the address is handled by BCH.",
        "params": {
          "wallet": "The address to check"
        }
      }
    },
    "title": "BCH Handled tokens contract"
  },
  "userdoc": {
    "methods": {}
  }
}