{
  "contractName": "Taxable",
  "abi": [
    {
      "constant": false,
      "inputs": [],
      "name": "renounceOwnership",
      "outputs": [],
      "payable": false,
      "stateMutability": "nonpayable",
      "type": "function"
    },
    {
      "constant": true,
      "inputs": [],
      "name": "owner",
      "outputs": [
        {
          "name": "",
          "type": "address"
        }
      ],
      "payable": false,
      "stateMutability": "view",
      "type": "function"
    },
    {
      "constant": true,
      "inputs": [],
      "name": "isOwner",
      "outputs": [
        {
          "name": "",
          "type": "bool"
        }
      ],
      "payable": false,
      "stateMutability": "view",
      "type": "function"
    },
    {
      "constant": false,
      "inputs": [
        {
          "name": "newOwner",
          "type": "address"
        }
      ],
      "name": "transferOwnership",
      "outputs": [],
      "payable": false,
      "stateMutability": "nonpayable",
      "type": "function"
    },
    {
      "inputs": [
        {
          "name": "taxRecipientAddr",
          "type": "address"
        }
      ],
      "payable": false,
      "stateMutability": "nonpayable",
      "type": "constructor"
    },
    {
      "anonymous": false,
      "inputs": [
        {
          "indexed": true,
          "name": "previousOwner",
          "type": "address"
        },
        {
          "indexed": true,
          "name": "newOwner",
          "type": "address"
        }
      ],
      "name": "OwnershipTransferred",
      "type": "event"
    },
    {
      "constant": true,
      "inputs": [],
      "name": "currentTaxAmount",
      "outputs": [
        {
          "name": "",
          "type": "uint256"
        }
      ],
      "payable": false,
      "stateMutability": "view",
      "type": "function"
    },
    {
      "constant": true,
      "inputs": [],
      "name": "currentTaxShift",
      "outputs": [
        {
          "name": "",
          "type": "uint256"
        }
      ],
      "payable": false,
      "stateMutability": "view",
      "type": "function"
    },
    {
      "constant": false,
      "inputs": [
        {
          "name": "amount",
          "type": "uint256"
        },
        {
          "name": "shift",
          "type": "uint256"
        }
      ],
      "name": "changeTax",
      "outputs": [],
      "payable": false,
      "stateMutability": "nonpayable",
      "type": "function"
    }
  ],
  "bytecode": "0x608060405234801561001057600080fd5b50604051602080610ac08339810180604052602081101561003057600080fd5b8101908080519060200190929190505050336000806101000a81548173ffffffffffffffffffffffffffffffffffffffff021916908373ffffffffffffffffffffffffffffffffffffffff1602179055506000809054906101000a900473ffffffffffffffffffffffffffffffffffffffff1673ffffffffffffffffffffffffffffffffffffffff16600073ffffffffffffffffffffffffffffffffffffffff167f8be0079c531659141344cd1fd0a4f28419497f9722a3daafe3b4186f6b6457e060405160405180910390a380600160006101000a81548173ffffffffffffffffffffffffffffffffffffffff021916908373ffffffffffffffffffffffffffffffffffffffff1602179055506101596009600161015f640100000000026401000000009004565b506103ea565b610176610277640100000000026401000000009004565b151561018157600080fd5b600081141561022a5760038211151515610229576040517f08c379a00000000000000000000000000000000000000000000000000000000081526004018080602001828103825260238152602001807f596f752063616e2774207365742061207461782067726561746572207468616e81526020017f203325000000000000000000000000000000000000000000000000000000000081525060400191505060405180910390fd5b5b6040805190810160405280838152602001610257836102ce64010000000002610492176401000000009004565b815250600260008201518160000155602082015181600101559050505050565b60008060009054906101000a900473ffffffffffffffffffffffffffffffffffffffff1673ffffffffffffffffffffffffffffffffffffffff163373ffffffffffffffffffffffffffffffffffffffff1614905090565b60008082101580156102e1575060028211155b151561037b576040517f08c379a00000000000000000000000000000000000000000000000000000000081526004018080602001828103825260288152602001807f596f752063616e277420736574206d6f7265207468616e203220646563696d6181526020017f6c20706c6163657300000000000000000000000000000000000000000000000081525060400191505060405180910390fd5b6000606490506103a483600a0a826103ac6401000000000261065d179091906401000000009004565b915050919050565b6000808314156103bf57600090506103e4565b600082840290508284828115156103d257fe5b041415156103df57600080fd5b809150505b92915050565b6106c7806103f96000396000f3fe608060405260043610610083576000357c0100000000000000000000000000000000000000000000000000000000900463ffffffff1680630f2af89a14610088578063174f0d4f146100b3578063715018a6146100de5780638da5cb5b146100f55780638f32d59b1461014c5780639036ed4d1461017b578063f2fde38b146101c0575b600080fd5b34801561009457600080fd5b5061009d610211565b6040518082815260200191505060405180910390f35b3480156100bf57600080fd5b506100c861021e565b6040518082815260200191505060405180910390f35b3480156100ea57600080fd5b506100f361022b565b005b34801561010157600080fd5b5061010a6102fd565b604051808273ffffffffffffffffffffffffffffffffffffffff1673ffffffffffffffffffffffffffffffffffffffff16815260200191505060405180910390f35b34801561015857600080fd5b50610161610326565b604051808215151515815260200191505060405180910390f35b34801561018757600080fd5b506101be6004803603604081101561019e57600080fd5b81019080803590602001909291908035906020019092919050505061037d565b005b3480156101cc57600080fd5b5061020f600480360360208110156101e357600080fd5b81019080803573ffffffffffffffffffffffffffffffffffffffff169060200190929190505050610473565b005b6000600260000154905090565b6000600260010154905090565b610233610326565b151561023e57600080fd5b600073ffffffffffffffffffffffffffffffffffffffff166000809054906101000a900473ffffffffffffffffffffffffffffffffffffffff1673ffffffffffffffffffffffffffffffffffffffff167f8be0079c531659141344cd1fd0a4f28419497f9722a3daafe3b4186f6b6457e060405160405180910390a360008060006101000a81548173ffffffffffffffffffffffffffffffffffffffff021916908373ffffffffffffffffffffffffffffffffffffffff160217905550565b60008060009054906101000a900473ffffffffffffffffffffffffffffffffffffffff16905090565b60008060009054906101000a900473ffffffffffffffffffffffffffffffffffffffff1673ffffffffffffffffffffffffffffffffffffffff163373ffffffffffffffffffffffffffffffffffffffff1614905090565b610385610326565b151561039057600080fd5b60008114156104395760038211151515610438576040517f08c379a00000000000000000000000000000000000000000000000000000000081526004018080602001828103825260238152602001807f596f752063616e2774207365742061207461782067726561746572207468616e81526020017f203325000000000000000000000000000000000000000000000000000000000081525060400191505060405180910390fd5b5b604080519081016040528083815260200161045383610492565b815250600260008201518160000155602082015181600101559050505050565b61047b610326565b151561048657600080fd5b61048f81610563565b50565b60008082101580156104a5575060028211155b151561053f576040517f08c379a00000000000000000000000000000000000000000000000000000000081526004018080602001828103825260288152602001807f596f752063616e277420736574206d6f7265207468616e203220646563696d6181526020017f6c20706c6163657300000000000000000000000000000000000000000000000081525060400191505060405180910390fd5b60006064905061055b83600a0a8261065d90919063ffffffff16565b915050919050565b600073ffffffffffffffffffffffffffffffffffffffff168173ffffffffffffffffffffffffffffffffffffffff161415151561059f57600080fd5b8073ffffffffffffffffffffffffffffffffffffffff166000809054906101000a900473ffffffffffffffffffffffffffffffffffffffff1673ffffffffffffffffffffffffffffffffffffffff167f8be0079c531659141344cd1fd0a4f28419497f9722a3daafe3b4186f6b6457e060405160405180910390a3806000806101000a81548173ffffffffffffffffffffffffffffffffffffffff021916908373ffffffffffffffffffffffffffffffffffffffff16021790555050565b6000808314156106705760009050610695565b6000828402905082848281151561068357fe5b0414151561069057600080fd5b809150505b9291505056fea165627a7a7230582034f3f890015332001f26cae5ba2f2cd6f2877e7f156cacc5efcaffcc11290ff40029",
  "source": "/**\n * This smart contract code is Copyright 2018 WiBX. For more information see https://wibx.io\n *\n * Licensed under the Apache License, version 2.0: https://github.com/wibxcoin/Contracts/LICENSE.txt\n */\n\npragma solidity 0.5.0;\n\nimport \"openzeppelin-solidity/contracts/ownership/Ownable.sol\";\nimport \"./TaxLib.sol\";\n\n/**\n * @title Taxable token\n *\n * @dev Manages dynamic taxes\n */\ncontract Taxable is Ownable\n{\n    /**\n     * Tax recipient.\n     */\n    address internal _taxRecipientAddr;\n\n    /**\n     * Modifiable tax container.\n     */\n    TaxLib.DynamicTax private _taxContainer;\n\n    constructor(address taxRecipientAddr) public\n    {\n        _taxRecipientAddr = taxRecipientAddr;\n\n        /**\n         * Tax: Starting at 0.9%\n         */\n        changeTax(9, 1);\n    }\n\n    /**\n     * @dev Get the current tax amount.\n     */\n    function currentTaxAmount() public view returns (uint256)\n    {\n        return _taxContainer.amount;\n    }\n\n    /**\n     * @dev Get the current tax shift.\n     */\n    function currentTaxShift() public view returns (uint256)\n    {\n        return _taxContainer.shift;\n    }\n\n    /**\n     * @dev Change the dynamic tax.\n     *\n     * Just the contract admin can change the taxes.\n     * The possible tax range is 0% ~ 3% and cannot exceed it.\n     *\n     * Reference table:\n     * 3, 0 (3 / 100)   = 3%\n     * 3, 1 (3 / 1000)  = 0.3%\n     * 3, 2 (3 / 10000) = 0.03%\n     *\n     * @param amount The new tax amount chosen\n     */\n    function changeTax(uint256 amount, uint256 shift) public onlyOwner\n    {\n        if (shift == 0)\n        {\n            require(amount <= 3, \"You can't set a tax greater than 3%\");\n        }\n\n        _taxContainer = TaxLib.DynamicTax(\n            amount,\n\n            // The maximum decimal places value is checked here\n            TaxLib.normalizeShiftAmount(shift)\n        );\n    }\n\n    /**\n     * @dev Apply the tax based on the dynamic tax container\n     *\n     * @param value The value of transaction\n     */\n    function _applyTax(uint256 value) internal view returns (uint256)\n    {\n        return TaxLib.applyTax(\n            _taxContainer.amount,\n            _taxContainer.shift,\n            value\n        );\n    }\n}",
  "sourcePath": "/home/gabriel/Documents/gitViews/wibxcoin/Contracts/wibx/contracts/Taxable.sol",
  "compiler": {
    "name": "solc",
    "version": "0.5.0+commit.1d4f565a.Emscripten.clang"
  },
  "schemaVersion": "3.0.1",
  "updatedAt": "2019-02-23T14:56:02.509Z",
  "devdoc": {
    "details": "Manages dynamic taxes",
    "methods": {
      "changeTax(uint256,uint256)": {
        "details": "Change the dynamic tax.     * Just the contract admin can change the taxes. The possible tax range is 0% ~ 3% and cannot exceed it.     * Reference table: 3, 0 (3 / 100)   = 3% 3, 1 (3 / 1000)  = 0.3% 3, 2 (3 / 10000) = 0.03%",
        "params": {
          "amount": "The new tax amount chosen"
        }
      },
      "currentTaxAmount()": {
        "details": "Get the current tax amount."
      },
      "currentTaxShift()": {
        "details": "Get the current tax shift."
      },
      "isOwner()": {
        "return": "true if `msg.sender` is the owner of the contract."
      },
      "owner()": {
        "return": "the address of the owner."
      },
      "renounceOwnership()": {
        "details": "Allows the current owner to relinquish control of the contract."
      },
      "transferOwnership(address)": {
        "details": "Allows the current owner to transfer control of the contract to a newOwner.",
        "params": {
          "newOwner": "The address to transfer ownership to."
        }
      }
    },
    "title": "Taxable token"
  },
  "userdoc": {
    "methods": {
      "renounceOwnership()": {
        "notice": "Renouncing to ownership will leave the contract without an owner. It will not be possible to call the functions with the `onlyOwner` modifier anymore."
      }
    }
  }
}