{
  "contractName": "Taxable",
  "abi": [
    {
      "inputs": [
        {
          "internalType": "address",
          "name": "taxRecipientAddr",
          "type": "address"
        }
      ],
      "payable": false,
      "stateMutability": "nonpayable",
      "type": "constructor"
    },
    {
      "anonymous": false,
      "inputs": [
        {
          "indexed": true,
          "internalType": "address",
          "name": "previousOwner",
          "type": "address"
        },
        {
          "indexed": true,
          "internalType": "address",
          "name": "newOwner",
          "type": "address"
        }
      ],
      "name": "OwnershipTransferred",
      "type": "event"
    },
    {
      "anonymous": false,
      "inputs": [
        {
          "indexed": false,
          "internalType": "uint256",
          "name": "oldAmount",
          "type": "uint256"
        },
        {
          "indexed": false,
          "internalType": "uint256",
          "name": "oldShift",
          "type": "uint256"
        },
        {
          "indexed": false,
          "internalType": "uint256",
          "name": "newAmount",
          "type": "uint256"
        },
        {
          "indexed": false,
          "internalType": "uint256",
          "name": "newShift",
          "type": "uint256"
        }
      ],
      "name": "TaxChange",
      "type": "event"
    },
    {
      "constant": true,
      "inputs": [],
      "name": "isOwner",
      "outputs": [
        {
          "internalType": "bool",
          "name": "",
          "type": "bool"
        }
      ],
      "payable": false,
      "stateMutability": "view",
      "type": "function"
    },
    {
      "constant": true,
      "inputs": [],
      "name": "owner",
      "outputs": [
        {
          "internalType": "address",
          "name": "",
          "type": "address"
        }
      ],
      "payable": false,
      "stateMutability": "view",
      "type": "function"
    },
    {
      "constant": false,
      "inputs": [],
      "name": "renounceOwnership",
      "outputs": [],
      "payable": false,
      "stateMutability": "nonpayable",
      "type": "function"
    },
    {
      "constant": false,
      "inputs": [
        {
          "internalType": "address",
          "name": "newOwner",
          "type": "address"
        }
      ],
      "name": "transferOwnership",
      "outputs": [],
      "payable": false,
      "stateMutability": "nonpayable",
      "type": "function"
    },
    {
      "constant": true,
      "inputs": [],
      "name": "taxRecipientAddr",
      "outputs": [
        {
          "internalType": "address",
          "name": "",
          "type": "address"
        }
      ],
      "payable": false,
      "stateMutability": "view",
      "type": "function"
    },
    {
      "constant": true,
      "inputs": [],
      "name": "currentTaxAmount",
      "outputs": [
        {
          "internalType": "uint256",
          "name": "",
          "type": "uint256"
        }
      ],
      "payable": false,
      "stateMutability": "view",
      "type": "function"
    },
    {
      "constant": true,
      "inputs": [],
      "name": "currentTaxShift",
      "outputs": [
        {
          "internalType": "uint256",
          "name": "",
          "type": "uint256"
        }
      ],
      "payable": false,
      "stateMutability": "view",
      "type": "function"
    },
    {
      "constant": false,
      "inputs": [
        {
          "internalType": "uint256",
          "name": "amount",
          "type": "uint256"
        },
        {
          "internalType": "uint256",
          "name": "shift",
          "type": "uint256"
        }
      ],
      "name": "changeTax",
      "outputs": [],
      "payable": false,
      "stateMutability": "nonpayable",
      "type": "function"
    },
    {
      "constant": true,
      "inputs": [
        {
          "internalType": "uint256",
          "name": "value",
          "type": "uint256"
        }
      ],
      "name": "simulateTaxValue",
      "outputs": [
        {
          "internalType": "uint256",
          "name": "",
          "type": "uint256"
        }
      ],
      "payable": false,
      "stateMutability": "view",
      "type": "function"
    },
    {
      "constant": true,
      "inputs": [
        {
          "internalType": "uint256",
          "name": "value",
          "type": "uint256"
        }
      ],
      "name": "simulateTransferValue",
      "outputs": [
        {
          "internalType": "uint256",
          "name": "",
          "type": "uint256"
        }
      ],
      "payable": false,
      "stateMutability": "view",
      "type": "function"
    },
    {
      "constant": true,
      "inputs": [
        {
          "internalType": "uint256",
          "name": "value",
          "type": "uint256"
        }
      ],
      "name": "amountToCleanBalance",
      "outputs": [
        {
          "internalType": "uint256",
          "name": "",
          "type": "uint256"
        }
      ],
      "payable": false,
      "stateMutability": "view",
      "type": "function"
    }
  ],
  "bytecode": "0x60806040523480156200001157600080fd5b506040516200125838038062001258833981810160405260208110156200003757600080fd5b8101908080519060200190929190505050620000586200016f60201b60201c565b6000806101000a81548173ffffffffffffffffffffffffffffffffffffffff021916908373ffffffffffffffffffffffffffffffffffffffff1602179055506000809054906101000a900473ffffffffffffffffffffffffffffffffffffffff1673ffffffffffffffffffffffffffffffffffffffff16600073ffffffffffffffffffffffffffffffffffffffff167f8be0079c531659141344cd1fd0a4f28419497f9722a3daafe3b4186f6b6457e060405160405180910390a380600160006101000a81548173ffffffffffffffffffffffffffffffffffffffff021916908373ffffffffffffffffffffffffffffffffffffffff16021790555062000168600960016200017760201b60201c565b5062000488565b600033905090565b620001876200030160201b60201c565b620001fa576040517f08c379a00000000000000000000000000000000000000000000000000000000081526004018080602001828103825260208152602001807f4f776e61626c653a2063616c6c6572206973206e6f7420746865206f776e657281525060200191505060405180910390fd5b60008114156200026157600382111562000260576040517f08c379a0000000000000000000000000000000000000000000000000000000008152600401808060200182810382526023815260200180620012356023913960400191505060405180910390fd5b5b7f9cfcb5349a9885d195ad78dbadde78894da162c8f5b7ca005bfefce437fd161060026000015460026001015484846040518085815260200184815260200183815260200182815260200194505050505060405180910390a16040518060400160405280838152602001620002e1836200036760201b6200082a1760201c565b815250600260008201518160000155602082015181600101559050505050565b60008060009054906101000a900473ffffffffffffffffffffffffffffffffffffffff1673ffffffffffffffffffffffffffffffffffffffff166200034b6200016f60201b60201c565b73ffffffffffffffffffffffffffffffffffffffff1614905090565b60008082101580156200037b575060028211155b620003d2576040517f08c379a00000000000000000000000000000000000000000000000000000000081526004018080602001828103825260288152602001806200120d6028913960400191505060405180910390fd5b600060649050620003f583600a0a82620003fd60201b620009fa1790919060201c565b915050919050565b60008083141562000412576000905062000482565b60008284029050828482816200042457fe5b04146200047d576040517f08c379a0000000000000000000000000000000000000000000000000000000008152600401808060200182810382526021815260200180620011ec6021913960400191505060405180910390fd5b809150505b92915050565b610d5480620004986000396000f3fe608060405234801561001057600080fd5b50600436106100a95760003560e01c8063715018a611610071578063715018a6146101b05780638da5cb5b146101ba5780638f32d59b146102045780639036ed4d14610226578063c1150bc71461025e578063f2fde38b146102a8576100a9565b80630307f1a5146100ae5780630f2af89a146100f0578063174f0d4f1461010e5780632b7693841461012c57806336d9b3241461016e575b600080fd5b6100da600480360360208110156100c457600080fd5b81019080803590602001909291905050506102ec565b6040518082815260200191505060405180910390f35b6100f861030a565b6040518082815260200191505060405180910390f35b610116610317565b6040518082815260200191505060405180910390f35b6101586004803603602081101561014257600080fd5b8101908080359060200190929190505050610324565b6040518082815260200191505060405180910390f35b61019a6004803603602081101561018457600080fd5b8101908080359060200190929190505050610342565b6040518082815260200191505060405180910390f35b6101b8610360565b005b6101c2610499565b604051808273ffffffffffffffffffffffffffffffffffffffff1673ffffffffffffffffffffffffffffffffffffffff16815260200191505060405180910390f35b61020c6104c2565b604051808215151515815260200191505060405180910390f35b61025c6004803603604081101561023c57600080fd5b810190808035906020019092919080359060200190929190505050610520565b005b610266610691565b604051808273ffffffffffffffffffffffffffffffffffffffff1673ffffffffffffffffffffffffffffffffffffffff16815260200191505060405180910390f35b6102ea600480360360208110156102be57600080fd5b81019080803573ffffffffffffffffffffffffffffffffffffffff1690602001909291905050506106bb565b005b600061030360026000015460026001015484610741565b9050919050565b6000600260000154905090565b6000600260010154905090565b600061033b600260000154600260010154846107c5565b9050919050565b6000610359600260000154600260010154846107ed565b9050919050565b6103686104c2565b6103da576040517f08c379a00000000000000000000000000000000000000000000000000000000081526004018080602001828103825260208152602001807f4f776e61626c653a2063616c6c6572206973206e6f7420746865206f776e657281525060200191505060405180910390fd5b600073ffffffffffffffffffffffffffffffffffffffff166000809054906101000a900473ffffffffffffffffffffffffffffffffffffffff1673ffffffffffffffffffffffffffffffffffffffff167f8be0079c531659141344cd1fd0a4f28419497f9722a3daafe3b4186f6b6457e060405160405180910390a360008060006101000a81548173ffffffffffffffffffffffffffffffffffffffff021916908373ffffffffffffffffffffffffffffffffffffffff160217905550565b60008060009054906101000a900473ffffffffffffffffffffffffffffffffffffffff16905090565b60008060009054906101000a900473ffffffffffffffffffffffffffffffffffffffff1673ffffffffffffffffffffffffffffffffffffffff16610504610822565b73ffffffffffffffffffffffffffffffffffffffff1614905090565b6105286104c2565b61059a576040517f08c379a00000000000000000000000000000000000000000000000000000000081526004018080602001828103825260208152602001807f4f776e61626c653a2063616c6c6572206973206e6f7420746865206f776e657281525060200191505060405180910390fd5b60008114156105fe5760038211156105fd576040517f08c379a0000000000000000000000000000000000000000000000000000000008152600401808060200182810382526023815260200180610cfd6023913960400191505060405180910390fd5b5b7f9cfcb5349a9885d195ad78dbadde78894da162c8f5b7ca005bfefce437fd161060026000015460026001015484846040518085815260200184815260200183815260200182815260200194505050505060405180910390a160405180604001604052808381526020016106718361082a565b815250600260008201518160000155602082015181600101559050505050565b6000600160009054906101000a900473ffffffffffffffffffffffffffffffffffffffff16905090565b6106c36104c2565b610735576040517f08c379a00000000000000000000000000000000000000000000000000000000081526004018080602001828103825260208152602001807f4f776e61626c653a2063616c6c6572206973206e6f7420746865206f776e657281525060200191505060405180910390fd5b61073e816108b6565b50565b6000806103e890506000600a82029050600061078a8361077c8861076e8b886109fa90919063ffffffff16565b610a8090919063ffffffff16565b610aca90919063ffffffff16565b90506107b96107b4826107a685896109fa90919063ffffffff16565b610a8090919063ffffffff16565b610b52565b93505050509392505050565b60006107e4826107d68686866107ed565b610aca90919063ffffffff16565b90509392505050565b60008061080385846109fa90919063ffffffff16565b90506108188482610a8090919063ffffffff16565b9150509392505050565b600033905090565b600080821015801561083d575060028211155b610892576040517f08c379a0000000000000000000000000000000000000000000000000000000008152600401808060200182810382526028815260200180610cd56028913960400191505060405180910390fd5b6000606490506108ae83600a0a826109fa90919063ffffffff16565b915050919050565b600073ffffffffffffffffffffffffffffffffffffffff168173ffffffffffffffffffffffffffffffffffffffff16141561093c576040517f08c379a0000000000000000000000000000000000000000000000000000000008152600401808060200182810382526026815260200180610c8e6026913960400191505060405180910390fd5b8073ffffffffffffffffffffffffffffffffffffffff166000809054906101000a900473ffffffffffffffffffffffffffffffffffffffff1673ffffffffffffffffffffffffffffffffffffffff167f8be0079c531659141344cd1fd0a4f28419497f9722a3daafe3b4186f6b6457e060405160405180910390a3806000806101000a81548173ffffffffffffffffffffffffffffffffffffffff021916908373ffffffffffffffffffffffffffffffffffffffff16021790555050565b600080831415610a0d5760009050610a7a565b6000828402905082848281610a1e57fe5b0414610a75576040517f08c379a0000000000000000000000000000000000000000000000000000000008152600401808060200182810382526021815260200180610cb46021913960400191505060405180910390fd5b809150505b92915050565b6000610ac283836040518060400160405280601a81526020017f536166654d6174683a206469766973696f6e206279207a65726f000000000000815250610bc7565b905092915050565b600080828401905083811015610b48576040517f08c379a000000000000000000000000000000000000000000000000000000000815260040180806020018281038252601b8152602001807f536166654d6174683a206164646974696f6e206f766572666c6f77000000000081525060200191505060405180910390fd5b8091505092915050565b600080610b7067016345785d8a000084610a8090919063ffffffff16565b90506005811115610baa57610ba2600a610b94600a86610aca90919063ffffffff16565b610a8090919063ffffffff16565b915050610bc2565b610bbe600a84610a8090919063ffffffff16565b9150505b919050565b60008083118290610c73576040517f08c379a00000000000000000000000000000000000000000000000000000000081526004018080602001828103825283818151815260200191508051906020019080838360005b83811015610c38578082015181840152602081019050610c1d565b50505050905090810190601f168015610c655780820380516001836020036101000a031916815260200191505b509250505060405180910390fd5b506000838581610c7f57fe5b04905080915050939250505056fe4f776e61626c653a206e6577206f776e657220697320746865207a65726f2061646472657373536166654d6174683a206d756c7469706c69636174696f6e206f766572666c6f77596f752063616e277420736574206d6f7265207468616e203220646563696d616c20706c61636573596f752063616e2774207365742061207461782067726561746572207468616e203325a265627a7a72315820825b76dceeabf2f408a1eb47af1e076b1a409dc023e6a6f42171c3e607a1b92264736f6c634300050c0032536166654d6174683a206d756c7469706c69636174696f6e206f766572666c6f77596f752063616e277420736574206d6f7265207468616e203220646563696d616c20706c61636573596f752063616e2774207365742061207461782067726561746572207468616e203325",
  "source": "/**\n * This smart contract code is Copyright 2018 WiBX. For more information see https://wibx.io\n *\n * Licensed under the Apache License, version 2.0: https://github.com/wibxcoin/Contracts/LICENSE.txt\n */\n\npragma solidity 0.5.12;\n\nimport \"openzeppelin-solidity/contracts/ownership/Ownable.sol\";\nimport \"./TaxLib.sol\";\n\n/**\n * @title Taxable token\n *\n * @dev Manages dynamic taxes\n */\ncontract Taxable is Ownable\n{\n    /**\n     * Tax recipient.\n     */\n    address internal _taxRecipientAddr;\n\n    /**\n     * Modifiable tax container.\n     */\n    TaxLib.DynamicTax private _taxContainer;\n\n    /**\n     * @dev Event that is emited when the owner changes the tax of the token.\n     */\n    event TaxChange(\n        uint256 oldAmount,\n        uint256 oldShift,\n        uint256 newAmount,\n        uint256 newShift\n    );\n\n    constructor(address taxRecipientAddr) public\n    {\n        _taxRecipientAddr = taxRecipientAddr;\n\n        /**\n         * Tax: Starting at 0.9%\n         */\n        changeTax(9, 1);\n    }\n\n    /**\n     * Returns the tax recipient account\n     */\n    function taxRecipientAddr() public view returns (address)\n    {\n        return _taxRecipientAddr;\n    }\n\n    /**\n     * @dev Get the current tax amount.\n     */\n    function currentTaxAmount() public view returns (uint256)\n    {\n        return _taxContainer.amount;\n    }\n\n    /**\n     * @dev Get the current tax shift.\n     */\n    function currentTaxShift() public view returns (uint256)\n    {\n        return _taxContainer.shift;\n    }\n\n    /**\n     * @dev Change the dynamic tax.\n     *\n     * Just the contract admin can change the taxes.\n     * The possible tax range is 0% ~ 3% and cannot exceed it.\n     *\n     * Reference table:\n     * 3, 0 (3 / 100)   = 3%\n     * 3, 1 (3 / 1000)  = 0.3%\n     * 3, 2 (3 / 10000) = 0.03%\n     *\n     * @param amount The new tax amount chosen\n     */\n    function changeTax(uint256 amount, uint256 shift) public onlyOwner\n    {\n        if (shift == 0)\n        {\n            require(amount <= 3, \"You can't set a tax greater than 3%\");\n        }\n\n        emit TaxChange(\n            _taxContainer.amount,\n            _taxContainer.shift,\n            amount,\n            shift\n        );\n\n        _taxContainer = TaxLib.DynamicTax(\n            amount,\n\n            // The maximum decimal places value is checked here\n            TaxLib.normalizeShiftAmount(shift)\n        );\n    }\n\n    /**\n     * Used to check the tax value that will be applied to a\n     * given amount.\n     *\n     * @param value the amount that will transferred.\n     */\n    function simulateTaxValue(uint256 value) public view returns (uint256)\n    {\n        return TaxLib.applyTax(\n            _taxContainer.amount,\n            _taxContainer.shift,\n            value\n        );\n    }\n\n    /**\n     * Used to check the total amount that will discounted\n     * from sender after applying the tax.\n     *\n     * @param value the amount that will transferred.\n     */\n    function simulateTransferValue(uint256 value) public view returns (uint256)\n    {\n        return TaxLib.totalAmountTransfer(\n            _taxContainer.amount,\n            _taxContainer.shift,\n            value\n        );\n    }\n\n    /**\n     * Considering a tax that will be applied over a value, what is\n     * the value to request as trasnfer amount and make the sender balance\n     * to be zero as resultant.\n     *\n     * @param value the amount that will transferred.\n     */\n    function amountToCleanBalance(uint256 value) public view returns (uint256)\n    {\n        return TaxLib.calculateAmountToCleanBalance(\n            _taxContainer.amount,\n            _taxContainer.shift,\n            value\n        );\n    }\n\n    /**\n     * @dev Apply the tax based on the dynamic tax container\n     *\n     * @param value The value of transaction\n     */\n    function _applyTax(uint256 value) internal view returns (uint256)\n    {\n        return TaxLib.applyTax(\n            _taxContainer.amount,\n            _taxContainer.shift,\n            value\n        );\n    }\n\n}",
  "sourcePath": "/Users/edizon/projetos/wiboo/plataforma/Contracts/wibx/contracts/Taxable.sol",
  "compiler": {
    "name": "solc",
    "version": "0.5.12+commit.7709ece9.Emscripten.clang"
  },
  "schemaVersion": "3.0.19",
  "updatedAt": "2020-03-07T18:08:31.425Z",
  "devdoc": {
    "details": "Manages dynamic taxes",
    "methods": {
      "amountToCleanBalance(uint256)": {
        "params": {
          "value": "the amount that will transferred."
        }
      },
      "changeTax(uint256,uint256)": {
        "details": "Change the dynamic tax.     * Just the contract admin can change the taxes. The possible tax range is 0% ~ 3% and cannot exceed it.     * Reference table: 3, 0 (3 / 100)   = 3% 3, 1 (3 / 1000)  = 0.3% 3, 2 (3 / 10000) = 0.03%",
        "params": {
          "amount": "The new tax amount chosen"
        }
      },
      "currentTaxAmount()": {
        "details": "Get the current tax amount."
      },
      "currentTaxShift()": {
        "details": "Get the current tax shift."
      },
      "isOwner()": {
        "details": "Returns true if the caller is the current owner."
      },
      "owner()": {
        "details": "Returns the address of the current owner."
      },
      "renounceOwnership()": {
        "details": "Leaves the contract without owner. It will not be possible to call `onlyOwner` functions anymore. Can only be called by the current owner.     * NOTE: Renouncing ownership will leave the contract without an owner, thereby removing any functionality that is only available to the owner."
      },
      "simulateTaxValue(uint256)": {
        "params": {
          "value": "the amount that will transferred."
        }
      },
      "simulateTransferValue(uint256)": {
        "params": {
          "value": "the amount that will transferred."
        }
      },
      "transferOwnership(address)": {
        "details": "Transfers ownership of the contract to a new account (`newOwner`). Can only be called by the current owner."
      }
    },
    "title": "Taxable token"
  },
  "userdoc": {
    "methods": {
      "amountToCleanBalance(uint256)": {
        "notice": "Considering a tax that will be applied over a value, what is the value to request as trasnfer amount and make the sender balance to be zero as resultant."
      },
      "simulateTaxValue(uint256)": {
        "notice": "Used to check the tax value that will be applied to a given amount."
      },
      "simulateTransferValue(uint256)": {
        "notice": "Used to check the total amount that will discounted from sender after applying the tax."
      },
      "taxRecipientAddr()": {
        "notice": "Returns the tax recipient account"
      }
    }
  }
}