{
  "contractName": "WibxToken",
  "abi": [
    {
      "constant": true,
      "inputs": [],
      "name": "name",
      "outputs": [
        {
          "name": "",
          "type": "string"
        }
      ],
      "payable": false,
      "stateMutability": "view",
      "type": "function",
      "signature": "0x06fdde03"
    },
    {
      "constant": false,
      "inputs": [
        {
          "name": "spender",
          "type": "address"
        },
        {
          "name": "value",
          "type": "uint256"
        }
      ],
      "name": "approve",
      "outputs": [
        {
          "name": "",
          "type": "bool"
        }
      ],
      "payable": false,
      "stateMutability": "nonpayable",
      "type": "function",
      "signature": "0x095ea7b3"
    },
    {
      "constant": true,
      "inputs": [],
      "name": "currentTaxAmount",
      "outputs": [
        {
          "name": "",
          "type": "uint256"
        }
      ],
      "payable": false,
      "stateMutability": "view",
      "type": "function",
      "signature": "0x0f2af89a"
    },
    {
      "constant": true,
      "inputs": [
        {
          "name": "wallet",
          "type": "address"
        }
      ],
      "name": "isBchHandled",
      "outputs": [
        {
          "name": "",
          "type": "bool"
        }
      ],
      "payable": false,
      "stateMutability": "view",
      "type": "function",
      "signature": "0x102bf9b9"
    },
    {
      "constant": true,
      "inputs": [],
      "name": "currentTaxShift",
      "outputs": [
        {
          "name": "",
          "type": "uint256"
        }
      ],
      "payable": false,
      "stateMutability": "view",
      "type": "function",
      "signature": "0x174f0d4f"
    },
    {
      "constant": true,
      "inputs": [],
      "name": "totalSupply",
      "outputs": [
        {
          "name": "",
          "type": "uint256"
        }
      ],
      "payable": false,
      "stateMutability": "view",
      "type": "function",
      "signature": "0x18160ddd"
    },
    {
      "constant": false,
      "inputs": [],
      "name": "bchRevoke",
      "outputs": [
        {
          "name": "",
          "type": "bool"
        }
      ],
      "payable": false,
      "stateMutability": "nonpayable",
      "type": "function",
      "signature": "0x1b1a48f5"
    },
    {
      "constant": true,
      "inputs": [],
      "name": "INITIAL_SUPPLY",
      "outputs": [
        {
          "name": "",
          "type": "uint256"
        }
      ],
      "payable": false,
      "stateMutability": "view",
      "type": "function",
      "signature": "0x2ff2e9dc"
    },
    {
      "constant": true,
      "inputs": [],
      "name": "decimals",
      "outputs": [
        {
          "name": "",
          "type": "uint8"
        }
      ],
      "payable": false,
      "stateMutability": "view",
      "type": "function",
      "signature": "0x313ce567"
    },
    {
      "constant": false,
      "inputs": [
        {
          "name": "spender",
          "type": "address"
        },
        {
          "name": "addedValue",
          "type": "uint256"
        }
      ],
      "name": "increaseAllowance",
      "outputs": [
        {
          "name": "success",
          "type": "bool"
        }
      ],
      "payable": false,
      "stateMutability": "nonpayable",
      "type": "function",
      "signature": "0x39509351"
    },
    {
      "constant": false,
      "inputs": [],
      "name": "unpause",
      "outputs": [],
      "payable": false,
      "stateMutability": "nonpayable",
      "type": "function",
      "signature": "0x3f4ba83a"
    },
    {
      "constant": true,
      "inputs": [
        {
          "name": "account",
          "type": "address"
        }
      ],
      "name": "isPauser",
      "outputs": [
        {
          "name": "",
          "type": "bool"
        }
      ],
      "payable": false,
      "stateMutability": "view",
      "type": "function",
      "signature": "0x46fbf68e"
    },
    {
      "constant": true,
      "inputs": [],
      "name": "paused",
      "outputs": [
        {
          "name": "",
          "type": "bool"
        }
      ],
      "payable": false,
      "stateMutability": "view",
      "type": "function",
      "signature": "0x5c975abb"
    },
    {
      "constant": false,
      "inputs": [],
      "name": "renouncePauser",
      "outputs": [],
      "payable": false,
      "stateMutability": "nonpayable",
      "type": "function",
      "signature": "0x6ef8d66d"
    },
    {
      "constant": true,
      "inputs": [
        {
          "name": "owner",
          "type": "address"
        }
      ],
      "name": "balanceOf",
      "outputs": [
        {
          "name": "",
          "type": "uint256"
        }
      ],
      "payable": false,
      "stateMutability": "view",
      "type": "function",
      "signature": "0x70a08231"
    },
    {
      "constant": false,
      "inputs": [],
      "name": "renounceOwnership",
      "outputs": [],
      "payable": false,
      "stateMutability": "nonpayable",
      "type": "function",
      "signature": "0x715018a6"
    },
    {
      "constant": false,
      "inputs": [
        {
          "name": "account",
          "type": "address"
        }
      ],
      "name": "addPauser",
      "outputs": [],
      "payable": false,
      "stateMutability": "nonpayable",
      "type": "function",
      "signature": "0x82dc1ec4"
    },
    {
      "constant": false,
      "inputs": [],
      "name": "pause",
      "outputs": [],
      "payable": false,
      "stateMutability": "nonpayable",
      "type": "function",
      "signature": "0x8456cb59"
    },
    {
      "constant": true,
      "inputs": [],
      "name": "owner",
      "outputs": [
        {
          "name": "",
          "type": "address"
        }
      ],
      "payable": false,
      "stateMutability": "view",
      "type": "function",
      "signature": "0x8da5cb5b"
    },
    {
      "constant": true,
      "inputs": [],
      "name": "isOwner",
      "outputs": [
        {
          "name": "",
          "type": "bool"
        }
      ],
      "payable": false,
      "stateMutability": "view",
      "type": "function",
      "signature": "0x8f32d59b"
    },
    {
      "constant": false,
      "inputs": [
        {
          "name": "amount",
          "type": "uint256"
        },
        {
          "name": "shift",
          "type": "uint256"
        }
      ],
      "name": "changeTax",
      "outputs": [],
      "payable": false,
      "stateMutability": "nonpayable",
      "type": "function",
      "signature": "0x9036ed4d"
    },
    {
      "constant": true,
      "inputs": [],
      "name": "symbol",
      "outputs": [
        {
          "name": "",
          "type": "string"
        }
      ],
      "payable": false,
      "stateMutability": "view",
      "type": "function",
      "signature": "0x95d89b41"
    },
    {
      "constant": false,
      "inputs": [],
      "name": "bchAuthorize",
      "outputs": [
        {
          "name": "",
          "type": "bool"
        }
      ],
      "payable": false,
      "stateMutability": "nonpayable",
      "type": "function",
      "signature": "0x9ea605c3"
    },
    {
      "constant": false,
      "inputs": [
        {
          "name": "spender",
          "type": "address"
        },
        {
          "name": "subtractedValue",
          "type": "uint256"
        }
      ],
      "name": "decreaseAllowance",
      "outputs": [
        {
          "name": "success",
          "type": "bool"
        }
      ],
      "payable": false,
      "stateMutability": "nonpayable",
      "type": "function",
      "signature": "0xa457c2d7"
    },
    {
      "constant": true,
      "inputs": [],
      "name": "taxRecipientAddr",
      "outputs": [
        {
          "name": "",
          "type": "address"
        }
      ],
      "payable": false,
      "stateMutability": "view",
      "type": "function",
      "signature": "0xc1150bc7"
    },
    {
      "constant": true,
      "inputs": [
        {
          "name": "owner",
          "type": "address"
        },
        {
          "name": "spender",
          "type": "address"
        }
      ],
      "name": "allowance",
      "outputs": [
        {
          "name": "",
          "type": "uint256"
        }
      ],
      "payable": false,
      "stateMutability": "view",
      "type": "function",
      "signature": "0xdd62ed3e"
    },
    {
      "constant": false,
      "inputs": [
        {
          "name": "newOwner",
          "type": "address"
        }
      ],
      "name": "transferOwnership",
      "outputs": [],
      "payable": false,
      "stateMutability": "nonpayable",
      "type": "function",
      "signature": "0xf2fde38b"
    },
    {
      "inputs": [
        {
          "name": "bchAddress",
          "type": "address"
        },
        {
          "name": "taxRecipientAddr",
          "type": "address"
        }
      ],
      "payable": false,
      "stateMutability": "nonpayable",
      "type": "constructor",
      "signature": "constructor"
    },
    {
      "anonymous": false,
      "inputs": [
        {
          "indexed": true,
          "name": "to",
          "type": "address"
        },
        {
          "indexed": false,
          "name": "state",
          "type": "bool"
        }
      ],
      "name": "BchApproval",
      "type": "event",
      "signature": "0x387797210916a5c520f420b0ef09d9bee966f0728f388056ec40f6ac4a8a81ef"
    },
    {
      "anonymous": false,
      "inputs": [
        {
          "indexed": true,
          "name": "previousOwner",
          "type": "address"
        },
        {
          "indexed": true,
          "name": "newOwner",
          "type": "address"
        }
      ],
      "name": "OwnershipTransferred",
      "type": "event",
      "signature": "0x8be0079c531659141344cd1fd0a4f28419497f9722a3daafe3b4186f6b6457e0"
    },
    {
      "anonymous": false,
      "inputs": [
        {
          "indexed": false,
          "name": "account",
          "type": "address"
        }
      ],
      "name": "Paused",
      "type": "event",
      "signature": "0x62e78cea01bee320cd4e420270b5ea74000d11b0c9f74754ebdbfc544b05a258"
    },
    {
      "anonymous": false,
      "inputs": [
        {
          "indexed": false,
          "name": "account",
          "type": "address"
        }
      ],
      "name": "Unpaused",
      "type": "event",
      "signature": "0x5db9ee0a495bf2e6ff9c91a7834c1ba4fdd244a5e8aa4e537bd38aeae4b073aa"
    },
    {
      "anonymous": false,
      "inputs": [
        {
          "indexed": true,
          "name": "account",
          "type": "address"
        }
      ],
      "name": "PauserAdded",
      "type": "event",
      "signature": "0x6719d08c1888103bea251a4ed56406bd0c3e69723c8a1686e017e7bbe159b6f8"
    },
    {
      "anonymous": false,
      "inputs": [
        {
          "indexed": true,
          "name": "account",
          "type": "address"
        }
      ],
      "name": "PauserRemoved",
      "type": "event",
      "signature": "0xcd265ebaf09df2871cc7bd4133404a235ba12eff2041bb89d9c714a2621c7c7e"
    },
    {
      "anonymous": false,
      "inputs": [
        {
          "indexed": true,
          "name": "from",
          "type": "address"
        },
        {
          "indexed": true,
          "name": "to",
          "type": "address"
        },
        {
          "indexed": false,
          "name": "value",
          "type": "uint256"
        }
      ],
      "name": "Transfer",
      "type": "event",
      "signature": "0xddf252ad1be2c89b69c2b068fc378daa952ba7f163c4a11628f55a4df523b3ef"
    },
    {
      "anonymous": false,
      "inputs": [
        {
          "indexed": true,
          "name": "owner",
          "type": "address"
        },
        {
          "indexed": true,
          "name": "spender",
          "type": "address"
        },
        {
          "indexed": false,
          "name": "value",
          "type": "uint256"
        }
      ],
      "name": "Approval",
      "type": "event",
      "signature": "0x8c5be1e5ebec7d5bd14f71427d1e84f3dd0314c0f7b2291e5b200ac8c7c3b925"
    },
    {
      "constant": false,
      "inputs": [
        {
          "name": "to",
          "type": "address"
        },
        {
          "name": "value",
          "type": "uint256"
        }
      ],
      "name": "transfer",
      "outputs": [
        {
          "name": "",
          "type": "bool"
        }
      ],
      "payable": false,
      "stateMutability": "nonpayable",
      "type": "function",
      "signature": "0xa9059cbb"
    },
    {
      "constant": false,
      "inputs": [
        {
          "name": "from",
          "type": "address"
        },
        {
          "name": "to",
          "type": "address"
        },
        {
          "name": "value",
          "type": "uint256"
        }
      ],
      "name": "transferFrom",
      "outputs": [
        {
          "name": "",
          "type": "bool"
        }
      ],
      "payable": false,
      "stateMutability": "nonpayable",
      "type": "function",
      "signature": "0x23b872dd"
    },
    {
      "constant": false,
      "inputs": [
        {
          "name": "recipients",
          "type": "address[]"
        },
        {
          "name": "values",
          "type": "uint256[]"
        },
        {
          "name": "from",
          "type": "address"
        }
      ],
      "name": "sendBatch",
      "outputs": [
        {
          "name": "",
          "type": "bool"
        }
      ],
      "payable": false,
      "stateMutability": "nonpayable",
      "type": "function",
      "signature": "0x33237989"
    }
  ],
  "bytecode": "0x60806040523480156200001157600080fd5b506040516040806200315c833981018060405260408110156200003357600080fd5b81019080805190602001909291908051906020019092919050505081816040805190810160405280601281526020017f57694258205574696c69747920546f6b656e00000000000000000000000000008152506040805190810160405280600381526020017f57425800000000000000000000000000000000000000000000000000000000008152506012620000d833620002d1640100000000026401000000009004565b6000600460006101000a81548160ff02191690831515021790555082600590805190602001906200010b929190620008c7565b50816006908051906020019062000124929190620008c7565b5080600760006101000a81548160ff021916908360ff16021790555050505033600760016101000a81548173ffffffffffffffffffffffffffffffffffffffff021916908373ffffffffffffffffffffffffffffffffffffffff160217905550600760019054906101000a900473ffffffffffffffffffffffffffffffffffffffff1673ffffffffffffffffffffffffffffffffffffffff16600073ffffffffffffffffffffffffffffffffffffffff167f8be0079c531659141344cd1fd0a4f28419497f9722a3daafe3b4186f6b6457e060405160405180910390a380600860006101000a81548173ffffffffffffffffffffffffffffffffffffffff021916908373ffffffffffffffffffffffffffffffffffffffff1602179055506200025f600960016200033b640100000000026401000000009004565b5080600b60006101000a81548173ffffffffffffffffffffffffffffffffffffffff021916908373ffffffffffffffffffffffffffffffffffffffff16021790555050620002c9336b26c62ad77dc602dae00000006200045b640100000000026401000000009004565b505062000976565b620002f5816003620005d06401000000000262002670179091906401000000009004565b8073ffffffffffffffffffffffffffffffffffffffff167f6719d08c1888103bea251a4ed56406bd0c3e69723c8a1686e017e7bbe159b6f860405160405180910390a250565b6200035462000693640100000000026401000000009004565b15156200036057600080fd5b60008114156200040b57600382111515156200040a576040517f08c379a00000000000000000000000000000000000000000000000000000000081526004018080602001828103825260238152602001807f596f752063616e2774207365742061207461782067726561746572207468616e81526020017f203325000000000000000000000000000000000000000000000000000000000081525060400191505060405180910390fd5b5b60408051908101604052808381526020016200043b83620006eb6401000000000262001d93176401000000009004565b815250600960008201518160000155602082015181600101559050505050565b600073ffffffffffffffffffffffffffffffffffffffff168273ffffffffffffffffffffffffffffffffffffffff16141515156200049857600080fd5b620004bd81600254620007ce64010000000002620025a0179091906401000000009004565b60028190555062000524816000808573ffffffffffffffffffffffffffffffffffffffff1673ffffffffffffffffffffffffffffffffffffffff16815260200190815260200160002054620007ce64010000000002620025a0179091906401000000009004565b6000808473ffffffffffffffffffffffffffffffffffffffff1673ffffffffffffffffffffffffffffffffffffffff168152602001908152602001600020819055508173ffffffffffffffffffffffffffffffffffffffff16600073ffffffffffffffffffffffffffffffffffffffff167fddf252ad1be2c89b69c2b068fc378daa952ba7f163c4a11628f55a4df523b3ef836040518082815260200191505060405180910390a35050565b600073ffffffffffffffffffffffffffffffffffffffff168173ffffffffffffffffffffffffffffffffffffffff16141515156200060d57600080fd5b620006288282620007f0640100000000026401000000009004565b1515156200063557600080fd5b60018260000160008373ffffffffffffffffffffffffffffffffffffffff1673ffffffffffffffffffffffffffffffffffffffff16815260200190815260200160002060006101000a81548160ff0219169083151502179055505050565b6000600760019054906101000a900473ffffffffffffffffffffffffffffffffffffffff1673ffffffffffffffffffffffffffffffffffffffff163373ffffffffffffffffffffffffffffffffffffffff1614905090565b6000808210158015620006ff575060028211155b15156200079a576040517f08c379a00000000000000000000000000000000000000000000000000000000081526004018080602001828103825260288152602001807f596f752063616e277420736574206d6f7265207468616e203220646563696d6181526020017f6c20706c6163657300000000000000000000000000000000000000000000000081525060400191505060405180910390fd5b600060649050620007c683600a0a82620008856401000000000262002720179091906401000000009004565b915050919050565b6000808284019050838110151515620007e657600080fd5b8091505092915050565b60008073ffffffffffffffffffffffffffffffffffffffff168273ffffffffffffffffffffffffffffffffffffffff16141515156200082e57600080fd5b8260000160008373ffffffffffffffffffffffffffffffffffffffff1673ffffffffffffffffffffffffffffffffffffffff16815260200190815260200160002060009054906101000a900460ff16905092915050565b6000808314156200089a5760009050620008c1565b60008284029050828482811515620008ae57fe5b04141515620008bc57600080fd5b809150505b92915050565b828054600181600116156101000203166002900490600052602060002090601f016020900481019282601f106200090a57805160ff19168380011785556200093b565b828001600101855582156200093b579182015b828111156200093a5782518255916020019190600101906200091d565b5b5090506200094a91906200094e565b5090565b6200097391905b808211156200096f57600081600090555060010162000955565b5090565b90565b6127d680620009866000396000f3fe608060405260043610610180576000357c0100000000000000000000000000000000000000000000000000000000900463ffffffff16806306fdde0314610185578063095ea7b3146102155780630f2af89a14610288578063102bf9b9146102b3578063174f0d4f1461031c57806318160ddd146103475780631b1a48f51461037257806323b872dd146103a15780632ff2e9dc14610434578063313ce5671461045f578063332379891461049057806339509351146106215780633f4ba83a1461069457806346fbf68e146106ab5780635c975abb146107145780636ef8d66d1461074357806370a082311461075a578063715018a6146107bf57806382dc1ec4146107d65780638456cb59146108275780638da5cb5b1461083e5780638f32d59b146108955780639036ed4d146108c457806395d89b41146109095780639ea605c314610999578063a457c2d7146109c8578063a9059cbb14610a3b578063c1150bc714610aae578063dd62ed3e14610b05578063f2fde38b14610b8a575b600080fd5b34801561019157600080fd5b5061019a610bdb565b6040518080602001828103825283818151815260200191508051906020019080838360005b838110156101da5780820151818401526020810190506101bf565b50505050905090810190601f1680156102075780820380516001836020036101000a031916815260200191505b509250505060405180910390f35b34801561022157600080fd5b5061026e6004803603604081101561023857600080fd5b81019080803573ffffffffffffffffffffffffffffffffffffffff16906020019092919080359060200190929190505050610c7d565b604051808215151515815260200191505060405180910390f35b34801561029457600080fd5b5061029d610cad565b6040518082815260200191505060405180910390f35b3480156102bf57600080fd5b50610302600480360360208110156102d657600080fd5b81019080803573ffffffffffffffffffffffffffffffffffffffff169060200190929190505050610cba565b604051808215151515815260200191505060405180910390f35b34801561032857600080fd5b50610331610d10565b6040518082815260200191505060405180910390f35b34801561035357600080fd5b5061035c610d1d565b6040518082815260200191505060405180910390f35b34801561037e57600080fd5b50610387610d27565b604051808215151515815260200191505060405180910390f35b3480156103ad57600080fd5b5061041a600480360360608110156103c457600080fd5b81019080803573ffffffffffffffffffffffffffffffffffffffff169060200190929190803573ffffffffffffffffffffffffffffffffffffffff16906020019092919080359060200190929190505050610d38565b604051808215151515815260200191505060405180910390f35b34801561044057600080fd5b50610449610e20565b6040518082815260200191505060405180910390f35b34801561046b57600080fd5b50610474610e30565b604051808260ff1660ff16815260200191505060405180910390f35b34801561049c57600080fd5b50610607600480360360608110156104b357600080fd5b81019080803590602001906401000000008111156104d057600080fd5b8201836020820111156104e257600080fd5b8035906020019184602083028401116401000000008311171561050457600080fd5b919080806020026020016040519081016040528093929190818152602001838360200280828437600081840152601f19601f8201169050808301925050505050505091929192908035906020019064010000000081111561056457600080fd5b82018360208201111561057657600080fd5b8035906020019184602083028401116401000000008311171561059857600080fd5b919080806020026020016040519081016040528093929190818152602001838360200280828437600081840152601f19601f820116905080830192505050505050509192919290803573ffffffffffffffffffffffffffffffffffffffff169060200190929190505050610e47565b604051808215151515815260200191505060405180910390f35b34801561062d57600080fd5b5061067a6004803603604081101561064457600080fd5b81019080803573ffffffffffffffffffffffffffffffffffffffff16906020019092919080359060200190929190505050610fa4565b604051808215151515815260200191505060405180910390f35b3480156106a057600080fd5b506106a9610fd4565b005b3480156106b757600080fd5b506106fa600480360360208110156106ce57600080fd5b81019080803573ffffffffffffffffffffffffffffffffffffffff169060200190929190505050611083565b604051808215151515815260200191505060405180910390f35b34801561072057600080fd5b506107296110a0565b604051808215151515815260200191505060405180910390f35b34801561074f57600080fd5b506107586110b7565b005b34801561076657600080fd5b506107a96004803603602081101561077d57600080fd5b81019080803573ffffffffffffffffffffffffffffffffffffffff1690602001909291905050506110c2565b6040518082815260200191505060405180910390f35b3480156107cb57600080fd5b506107d461110a565b005b3480156107e257600080fd5b50610825600480360360208110156107f957600080fd5b81019080803573ffffffffffffffffffffffffffffffffffffffff1690602001909291905050506111de565b005b34801561083357600080fd5b5061083c6111fe565b005b34801561084a57600080fd5b506108536112ae565b604051808273ffffffffffffffffffffffffffffffffffffffff1673ffffffffffffffffffffffffffffffffffffffff16815260200191505060405180910390f35b3480156108a157600080fd5b506108aa6112d8565b604051808215151515815260200191505060405180910390f35b3480156108d057600080fd5b50610907600480360360408110156108e757600080fd5b810190808035906020019092919080359060200190929190505050611330565b005b34801561091557600080fd5b5061091e611426565b6040518080602001828103825283818151815260200191508051906020019080838360005b8381101561095e578082015181840152602081019050610943565b50505050905090810190601f16801561098b5780820380516001836020036101000a031916815260200191505b509250505060405180910390f35b3480156109a557600080fd5b506109ae6114c8565b604051808215151515815260200191505060405180910390f35b3480156109d457600080fd5b50610a21600480360360408110156109eb57600080fd5b81019080803573ffffffffffffffffffffffffffffffffffffffff169060200190929190803590602001909291905050506114d9565b604051808215151515815260200191505060405180910390f35b348015610a4757600080fd5b50610a9460048036036040811015610a5e57600080fd5b81019080803573ffffffffffffffffffffffffffffffffffffffff16906020019092919080359060200190929190505050611509565b604051808215151515815260200191505060405180910390f35b348015610aba57600080fd5b50610ac361151e565b604051808273ffffffffffffffffffffffffffffffffffffffff1673ffffffffffffffffffffffffffffffffffffffff16815260200191505060405180910390f35b348015610b1157600080fd5b50610b7460048036036040811015610b2857600080fd5b81019080803573ffffffffffffffffffffffffffffffffffffffff169060200190929190803573ffffffffffffffffffffffffffffffffffffffff169060200190929190505050611548565b6040518082815260200191505060405180910390f35b348015610b9657600080fd5b50610bd960048036036020811015610bad57600080fd5b81019080803573ffffffffffffffffffffffffffffffffffffffff1690602001909291905050506115cf565b005b606060058054600181600116156101000203166002900480601f016020809104026020016040519081016040528092919081815260200182805460018160011615610100020316600290048015610c735780601f10610c4857610100808354040283529160200191610c73565b820191906000526020600020905b815481529060010190602001808311610c5657829003601f168201915b5050505050905090565b6000600460009054906101000a900460ff16151515610c9b57600080fd5b610ca583836115ee565b905092915050565b6000600960000154905090565b6000600c60008373ffffffffffffffffffffffffffffffffffffffff1673ffffffffffffffffffffffffffffffffffffffff16815260200190815260200160002060009054906101000a900460ff169050919050565b6000600960010154905090565b6000600254905090565b6000610d33600061171b565b905090565b6000610d43846117cd565b15610d5a57610d53848484611838565b9050610e19565b610d6261151e565b73ffffffffffffffffffffffffffffffffffffffff168473ffffffffffffffffffffffffffffffffffffffff161480610dcd5750610d9e61151e565b73ffffffffffffffffffffffffffffffffffffffff168373ffffffffffffffffffffffffffffffffffffffff16145b15610de757610ddd8484846118fd565b5060019050610e19565b6000610df28361192f565b9050610e0685610e0061151e565b836118fd565b50610e128585856118fd565b5060019150505b9392505050565b6b26c62ad77dc602dae000000081565b6000600760009054906101000a900460ff16905090565b60008060649050600085519050818111151515610ecc576040517f08c379a000000000000000000000000000000000000000000000000000000000815260040180806020018281038252601e8152602001807f4d6178207472616e73616374696f6e20636f756e742076696f6c61746564000081525060200191505060405180910390fd5b845181141515610f44576040517f08c379a000000000000000000000000000000000000000000000000000000000815260040180806020018281038252600a8152602001807f57726f6e6720646174610000000000000000000000000000000000000000000081525060200191505060405180910390fd5b8373ffffffffffffffffffffffffffffffffffffffff163373ffffffffffffffffffffffffffffffffffffffff161415610f8c57610f8386868361194d565b92505050610f9d565b610f98868686846119b0565b925050505b9392505050565b6000600460009054906101000a900460ff16151515610fc257600080fd5b610fcc8383611a14565b905092915050565b610fdd33611083565b1515610fe857600080fd5b600460009054906101000a900460ff16151561100357600080fd5b6000600460006101000a81548160ff0219169083151502179055507f5db9ee0a495bf2e6ff9c91a7834c1ba4fdd244a5e8aa4e537bd38aeae4b073aa33604051808273ffffffffffffffffffffffffffffffffffffffff1673ffffffffffffffffffffffffffffffffffffffff16815260200191505060405180910390a1565b6000611099826003611c4b90919063ffffffff16565b9050919050565b6000600460009054906101000a900460ff16905090565b6110c033611cdf565b565b60008060008373ffffffffffffffffffffffffffffffffffffffff1673ffffffffffffffffffffffffffffffffffffffff168152602001908152602001600020549050919050565b6111126112d8565b151561111d57600080fd5b600073ffffffffffffffffffffffffffffffffffffffff16600760019054906101000a900473ffffffffffffffffffffffffffffffffffffffff1673ffffffffffffffffffffffffffffffffffffffff167f8be0079c531659141344cd1fd0a4f28419497f9722a3daafe3b4186f6b6457e060405160405180910390a36000600760016101000a81548173ffffffffffffffffffffffffffffffffffffffff021916908373ffffffffffffffffffffffffffffffffffffffff160217905550565b6111e733611083565b15156111f257600080fd5b6111fb81611d39565b50565b61120733611083565b151561121257600080fd5b600460009054906101000a900460ff1615151561122e57600080fd5b6001600460006101000a81548160ff0219169083151502179055507f62e78cea01bee320cd4e420270b5ea74000d11b0c9f74754ebdbfc544b05a25833604051808273ffffffffffffffffffffffffffffffffffffffff1673ffffffffffffffffffffffffffffffffffffffff16815260200191505060405180910390a1565b6000600760019054906101000a900473ffffffffffffffffffffffffffffffffffffffff16905090565b6000600760019054906101000a900473ffffffffffffffffffffffffffffffffffffffff1673ffffffffffffffffffffffffffffffffffffffff163373ffffffffffffffffffffffffffffffffffffffff1614905090565b6113386112d8565b151561134357600080fd5b60008114156113ec57600382111515156113eb576040517f08c379a00000000000000000000000000000000000000000000000000000000081526004018080602001828103825260238152602001807f596f752063616e2774207365742061207461782067726561746572207468616e81526020017f203325000000000000000000000000000000000000000000000000000000000081525060400191505060405180910390fd5b5b604080519081016040528083815260200161140683611d93565b815250600960008201518160000155602082015181600101559050505050565b606060068054600181600116156101000203166002900480601f0160208091040260200160405190810160405280929190818152602001828054600181600116156101000203166002900480156114be5780601f10611493576101008083540402835291602001916114be565b820191906000526020600020905b8154815290600101906020018083116114a157829003601f168201915b5050505050905090565b60006114d4600161171b565b905090565b6000600460009054906101000a900460ff161515156114f757600080fd5b6115018383611e64565b905092915050565b6000611516338484611838565b905092915050565b6000600860009054906101000a900473ffffffffffffffffffffffffffffffffffffffff16905090565b6000600160008473ffffffffffffffffffffffffffffffffffffffff1673ffffffffffffffffffffffffffffffffffffffff16815260200190815260200160002060008373ffffffffffffffffffffffffffffffffffffffff1673ffffffffffffffffffffffffffffffffffffffff16815260200190815260200160002054905092915050565b6115d76112d8565b15156115e257600080fd5b6115eb8161209b565b50565b60008073ffffffffffffffffffffffffffffffffffffffff168373ffffffffffffffffffffffffffffffffffffffff161415151561162b57600080fd5b81600160003373ffffffffffffffffffffffffffffffffffffffff1673ffffffffffffffffffffffffffffffffffffffff16815260200190815260200160002060008573ffffffffffffffffffffffffffffffffffffffff1673ffffffffffffffffffffffffffffffffffffffff168152602001908152602001600020819055508273ffffffffffffffffffffffffffffffffffffffff163373ffffffffffffffffffffffffffffffffffffffff167f8c5be1e5ebec7d5bd14f71427d1e84f3dd0314c0f7b2291e5b200ac8c7c3b925846040518082815260200191505060405180910390a36001905092915050565b60003373ffffffffffffffffffffffffffffffffffffffff167f387797210916a5c520f420b0ef09d9bee966f0728f388056ec40f6ac4a8a81ef83600c60003373ffffffffffffffffffffffffffffffffffffffff1673ffffffffffffffffffffffffffffffffffffffff16815260200190815260200160002060006101000a81548160ff0219169083151502179055604051808215151515815260200191505060405180910390a260019050919050565b60006117d882610cba565b80156118315750600b60009054906101000a900473ffffffffffffffffffffffffffffffffffffffff1673ffffffffffffffffffffffffffffffffffffffff163373ffffffffffffffffffffffffffffffffffffffff16145b9050919050565b600061184261151e565b73ffffffffffffffffffffffffffffffffffffffff168473ffffffffffffffffffffffffffffffffffffffff1614806118ad575061187e61151e565b73ffffffffffffffffffffffffffffffffffffffff168373ffffffffffffffffffffffffffffffffffffffff16145b156118c6576118bd848484612197565b600190506118f6565b60006118d18361192f565b90506118e5856118df61151e565b83612197565b6118f0858585612197565b60019150505b9392505050565b6000600460009054906101000a900460ff1615151561191b57600080fd5b611926848484612363565b90509392505050565b60006119466009600001546009600101548461256b565b9050919050565b600080600090505b828110156119a45761199633868381518110151561196f57fe5b90602001906020020151868481518110151561198757fe5b90602001906020020151611838565b508080600101915050611955565b50600190509392505050565b600080600090505b82811015611a07576119f98487838151811015156119d257fe5b9060200190602002015187848151811015156119ea57fe5b90602001906020020151610d38565b5080806001019150506119b8565b5060019050949350505050565b60008073ffffffffffffffffffffffffffffffffffffffff168373ffffffffffffffffffffffffffffffffffffffff1614151515611a5157600080fd5b611ae082600160003373ffffffffffffffffffffffffffffffffffffffff1673ffffffffffffffffffffffffffffffffffffffff16815260200190815260200160002060008673ffffffffffffffffffffffffffffffffffffffff1673ffffffffffffffffffffffffffffffffffffffff168152602001908152602001600020546125a090919063ffffffff16565b600160003373ffffffffffffffffffffffffffffffffffffffff1673ffffffffffffffffffffffffffffffffffffffff16815260200190815260200160002060008573ffffffffffffffffffffffffffffffffffffffff1673ffffffffffffffffffffffffffffffffffffffff168152602001908152602001600020819055508273ffffffffffffffffffffffffffffffffffffffff163373ffffffffffffffffffffffffffffffffffffffff167f8c5be1e5ebec7d5bd14f71427d1e84f3dd0314c0f7b2291e5b200ac8c7c3b925600160003373ffffffffffffffffffffffffffffffffffffffff1673ffffffffffffffffffffffffffffffffffffffff16815260200190815260200160002060008773ffffffffffffffffffffffffffffffffffffffff1673ffffffffffffffffffffffffffffffffffffffff168152602001908152602001600020546040518082815260200191505060405180910390a36001905092915050565b60008073ffffffffffffffffffffffffffffffffffffffff168273ffffffffffffffffffffffffffffffffffffffff1614151515611c8857600080fd5b8260000160008373ffffffffffffffffffffffffffffffffffffffff1673ffffffffffffffffffffffffffffffffffffffff16815260200190815260200160002060009054906101000a900460ff16905092915050565b611cf38160036125c190919063ffffffff16565b8073ffffffffffffffffffffffffffffffffffffffff167fcd265ebaf09df2871cc7bd4133404a235ba12eff2041bb89d9c714a2621c7c7e60405160405180910390a250565b611d4d81600361267090919063ffffffff16565b8073ffffffffffffffffffffffffffffffffffffffff167f6719d08c1888103bea251a4ed56406bd0c3e69723c8a1686e017e7bbe159b6f860405160405180910390a250565b6000808210158015611da6575060028211155b1515611e40576040517f08c379a00000000000000000000000000000000000000000000000000000000081526004018080602001828103825260288152602001807f596f752063616e277420736574206d6f7265207468616e203220646563696d6181526020017f6c20706c6163657300000000000000000000000000000000000000000000000081525060400191505060405180910390fd5b600060649050611e5c83600a0a8261272090919063ffffffff16565b915050919050565b60008073ffffffffffffffffffffffffffffffffffffffff168373ffffffffffffffffffffffffffffffffffffffff1614151515611ea157600080fd5b611f3082600160003373ffffffffffffffffffffffffffffffffffffffff1673ffffffffffffffffffffffffffffffffffffffff16815260200190815260200160002060008673ffffffffffffffffffffffffffffffffffffffff1673ffffffffffffffffffffffffffffffffffffffff1681526020019081526020016000205461275e90919063ffffffff16565b600160003373ffffffffffffffffffffffffffffffffffffffff1673ffffffffffffffffffffffffffffffffffffffff16815260200190815260200160002060008573ffffffffffffffffffffffffffffffffffffffff1673ffffffffffffffffffffffffffffffffffffffff168152602001908152602001600020819055508273ffffffffffffffffffffffffffffffffffffffff163373ffffffffffffffffffffffffffffffffffffffff167f8c5be1e5ebec7d5bd14f71427d1e84f3dd0314c0f7b2291e5b200ac8c7c3b925600160003373ffffffffffffffffffffffffffffffffffffffff1673ffffffffffffffffffffffffffffffffffffffff16815260200190815260200160002060008773ffffffffffffffffffffffffffffffffffffffff1673ffffffffffffffffffffffffffffffffffffffff168152602001908152602001600020546040518082815260200191505060405180910390a36001905092915050565b600073ffffffffffffffffffffffffffffffffffffffff168173ffffffffffffffffffffffffffffffffffffffff16141515156120d757600080fd5b8073ffffffffffffffffffffffffffffffffffffffff16600760019054906101000a900473ffffffffffffffffffffffffffffffffffffffff1673ffffffffffffffffffffffffffffffffffffffff167f8be0079c531659141344cd1fd0a4f28419497f9722a3daafe3b4186f6b6457e060405160405180910390a380600760016101000a81548173ffffffffffffffffffffffffffffffffffffffff021916908373ffffffffffffffffffffffffffffffffffffffff16021790555050565b600073ffffffffffffffffffffffffffffffffffffffff168273ffffffffffffffffffffffffffffffffffffffff16141515156121d357600080fd5b612224816000808673ffffffffffffffffffffffffffffffffffffffff1673ffffffffffffffffffffffffffffffffffffffff1681526020019081526020016000205461275e90919063ffffffff16565b6000808573ffffffffffffffffffffffffffffffffffffffff1673ffffffffffffffffffffffffffffffffffffffff168152602001908152602001600020819055506122b7816000808573ffffffffffffffffffffffffffffffffffffffff1673ffffffffffffffffffffffffffffffffffffffff168152602001908152602001600020546125a090919063ffffffff16565b6000808473ffffffffffffffffffffffffffffffffffffffff1673ffffffffffffffffffffffffffffffffffffffff168152602001908152602001600020819055508173ffffffffffffffffffffffffffffffffffffffff168373ffffffffffffffffffffffffffffffffffffffff167fddf252ad1be2c89b69c2b068fc378daa952ba7f163c4a11628f55a4df523b3ef836040518082815260200191505060405180910390a3505050565b60006123f482600160008773ffffffffffffffffffffffffffffffffffffffff1673ffffffffffffffffffffffffffffffffffffffff16815260200190815260200160002060003373ffffffffffffffffffffffffffffffffffffffff1673ffffffffffffffffffffffffffffffffffffffff1681526020019081526020016000205461275e90919063ffffffff16565b600160008673ffffffffffffffffffffffffffffffffffffffff1673ffffffffffffffffffffffffffffffffffffffff16815260200190815260200160002060003373ffffffffffffffffffffffffffffffffffffffff1673ffffffffffffffffffffffffffffffffffffffff1681526020019081526020016000208190555061247f848484612197565b3373ffffffffffffffffffffffffffffffffffffffff168473ffffffffffffffffffffffffffffffffffffffff167f8c5be1e5ebec7d5bd14f71427d1e84f3dd0314c0f7b2291e5b200ac8c7c3b925600160008873ffffffffffffffffffffffffffffffffffffffff1673ffffffffffffffffffffffffffffffffffffffff16815260200190815260200160002060003373ffffffffffffffffffffffffffffffffffffffff1673ffffffffffffffffffffffffffffffffffffffff168152602001908152602001600020546040518082815260200191505060405180910390a3600190509392505050565b600080612581858461272090919063ffffffff16565b9050612596848261278090919063ffffffff16565b9150509392505050565b60008082840190508381101515156125b757600080fd5b8091505092915050565b600073ffffffffffffffffffffffffffffffffffffffff168173ffffffffffffffffffffffffffffffffffffffff16141515156125fd57600080fd5b6126078282611c4b565b151561261257600080fd5b60008260000160008373ffffffffffffffffffffffffffffffffffffffff1673ffffffffffffffffffffffffffffffffffffffff16815260200190815260200160002060006101000a81548160ff0219169083151502179055505050565b600073ffffffffffffffffffffffffffffffffffffffff168173ffffffffffffffffffffffffffffffffffffffff16141515156126ac57600080fd5b6126b68282611c4b565b1515156126c257600080fd5b60018260000160008373ffffffffffffffffffffffffffffffffffffffff1673ffffffffffffffffffffffffffffffffffffffff16815260200190815260200160002060006101000a81548160ff0219169083151502179055505050565b6000808314156127335760009050612758565b6000828402905082848281151561274657fe5b0414151561275357600080fd5b809150505b92915050565b600082821115151561276f57600080fd5b600082840390508091505092915050565b6000808211151561279057600080fd5b6000828481151561279d57fe5b049050809150509291505056fea165627a7a72305820a0959619607c5050b59323be7e89712bfe460c31552a24326acc2115b1417e070029",
  "source": "/**\n * This smart contract code is Copyright 2018 WiBX. For more information see https://wibx.io\n *\n * Licensed under the Apache License, version 2.0: https://github.com/wibxcoin/Contracts/LICENSE.txt\n */\n\npragma solidity 0.5.0;\n\nimport \"openzeppelin-solidity/contracts/token/ERC20/ERC20Pausable.sol\";\nimport \"openzeppelin-solidity/contracts/token/ERC20/ERC20Detailed.sol\";\nimport \"openzeppelin-solidity/contracts/math/SafeMath.sol\";\nimport \"./Taxable.sol\";\nimport \"./BCHHandled.sol\";\nimport \"./TaxLib.sol\";\n\n/**\n * @title WiBX Utility Token\n *\n * @dev Implementation of the main WiBX token smart contract.\n */\ncontract WibxToken is ERC20Pausable, ERC20Detailed, Taxable, BCHHandled\n{\n    /**\n     * 12 billion tokens raised by 18 decimal places.\n     */\n    uint256 public constant INITIAL_SUPPLY = 12000000000 * (10 ** 18);\n\n    constructor(address bchAddress, address taxRecipientAddr) public ERC20Detailed(\"WiBX Utility Token\", \"WBX\", 18)\n                                                                     BCHHandled(bchAddress)\n                                                                     Taxable(taxRecipientAddr)\n    {\n        _mint(msg.sender, INITIAL_SUPPLY);\n    }\n\n    /**\n     * @dev Overrides the OpenZeppelin default transfer\n     *\n     * @param to The address to transfer to.\n     * @param value The amount to be transferred.\n     * @return If the operation was successful\n     */\n    function transfer(address to, uint256 value) public returns (bool)\n    {\n        return _fullTransfer(msg.sender, to, value);\n    }\n\n    /**\n     * @dev Special WBX transfer tokens from one address to another checking the access for BCH\n     *\n     * @param from address The address which you want to send tokens from\n     * @param to address The address which you want to transfer to\n     * @param value uint256 the amount of tokens to be transferred\n     * @return If the operation was successful\n     */\n    function transferFrom(address from, address to, uint256 value) public returns (bool)\n    {\n        if (canBchHandle(from))\n        {\n            return _fullTransfer(from, to, value);\n        }\n\n        /*\n         * Exempting the tax account to avoid an infinite loop in transferring values from this wallet.\n         */\n        if (from == taxRecipientAddr() || to == taxRecipientAddr())\n        {\n            super.transferFrom(from, to, value);\n\n            return true;\n        }\n\n        uint256 taxValue = _applyTax(value);\n\n        // Transfer the tax to the recipient\n        super.transferFrom(from, taxRecipientAddr(), taxValue);\n\n        // Transfer user's tokens\n        super.transferFrom(from, to, value);\n\n        return true;\n    }\n\n    /**\n     * @dev Batch token transfer (maxium 100 transfers)\n     *\n     * @param recipients The recipients for transfer to\n     * @param values The values\n     * @param from Spender address\n     * @return If the operation was successful\n     */\n    function sendBatch(address[] memory recipients, uint256[] memory values, address from) public returns (bool)\n    {\n        /*\n         * The maximum batch send should be 100 transactions.\n         * Each transaction we recommend 65000 of GAS limit and the maximum block size is 6700000.\n         * 6700000 / 65000 = ~103.0769  100 transacitons (safe rounded).\n         */\n        uint maxTransactionCount = 100;\n        uint transactionCount = recipients.length;\n\n        require(transactionCount <= maxTransactionCount, \"Max transaction count violated\");\n        require(transactionCount == values.length, \"Wrong data\");\n\n        if (msg.sender == from)\n        {\n            return _sendBatchSelf(recipients, values, transactionCount);\n        }\n\n        return _sendBatchFrom(recipients, values, from, transactionCount);\n    }\n\n    /**\n     * @dev Batch token transfer from MSG sender\n     *\n     * @param recipients The recipients for transfer to\n     * @param values The values\n     * @param transactionCount Total transaction count\n     * @return If the operation was successful\n     */\n    function _sendBatchSelf(address[] memory recipients, uint256[] memory values, uint transactionCount) private returns (bool)\n    {\n        for (uint i = 0; i < transactionCount; i++)\n        {\n            _fullTransfer(msg.sender, recipients[i], values[i]);\n        }\n\n        return true;\n    }\n\n    /**\n     * @dev Batch token transfer from other sender\n     *\n     * @param recipients The recipients for transfer to\n     * @param values The values\n     * @param from Spender address\n     * @param transactionCount Total transaction count\n     * @return If the operation was successful\n     */\n    function _sendBatchFrom(address[] memory recipients, uint256[] memory values, address from, uint transactionCount) private returns (bool)\n    {\n        for (uint i = 0; i < transactionCount; i++)\n        {\n            transferFrom(from, recipients[i], values[i]);\n        }\n\n        return true;\n    }\n\n    /**\n     * @dev Special WBX transfer token for a specified address.\n     *\n     * @param from The address of the spender\n     * @param to The address to transfer to.\n     * @param value The amount to be transferred.\n     * @return If the operation was successful\n     */\n    function _fullTransfer(address from, address to, uint256 value) private returns (bool)\n    {\n        /*\n         * Exempting the tax account to avoid an infinite loop in transferring values from this wallet.\n         */\n        if (from == taxRecipientAddr() || to == taxRecipientAddr())\n        {\n            _transfer(from, to, value);\n\n            return true;\n        }\n\n        uint256 taxValue = _applyTax(value);\n\n        // Transfer the tax to the recipient\n        _transfer(from, taxRecipientAddr(), taxValue);\n\n        // Transfer user's tokens\n        _transfer(from, to, value);\n\n        return true;\n    }\n}",
  "sourcePath": "/home/gabriel/Documents/gitViews/wibxcoin/Contracts/wibx/contracts/WibxToken.sol",
  "compiler": {
    "name": "solc",
    "version": "0.5.0+commit.1d4f565a.Emscripten.clang"
  },
  "schemaVersion": "3.0.1",
  "updatedAt": "2019-03-13T02:40:45.384Z",
  "devdoc": {
    "details": "Implementation of the main WiBX token smart contract.",
    "methods": {
      "allowance(address,address)": {
        "details": "Function to check the amount of tokens that an owner allowed to a spender.",
        "params": {
          "owner": "address The address which owns the funds.",
          "spender": "address The address which will spend the funds."
        },
        "return": "A uint256 specifying the amount of tokens still available for the spender."
      },
      "balanceOf(address)": {
        "details": "Gets the balance of the specified address.",
        "params": {
          "owner": "The address to query the balance of."
        },
        "return": "An uint256 representing the amount owned by the passed address."
      },
      "bchAuthorize()": {
        "details": "Authorize the full control of BCH."
      },
      "bchRevoke()": {
        "details": "Revoke the BCH access."
      },
      "changeTax(uint256,uint256)": {
        "details": "Change the dynamic tax.     * Just the contract admin can change the taxes. The possible tax range is 0% ~ 3% and cannot exceed it.     * Reference table: 3, 0 (3 / 100)   = 3% 3, 1 (3 / 1000)  = 0.3% 3, 2 (3 / 10000) = 0.03%",
        "params": {
          "amount": "The new tax amount chosen"
        }
      },
      "currentTaxAmount()": {
        "details": "Get the current tax amount."
      },
      "currentTaxShift()": {
        "details": "Get the current tax shift."
      },
      "decimals()": {
        "return": "the number of decimals of the token."
      },
      "isBchHandled(address)": {
        "details": "Check if the address is handled by BCH.",
        "params": {
          "wallet": "The address to check"
        }
      },
      "isOwner()": {
        "return": "true if `msg.sender` is the owner of the contract."
      },
      "name()": {
        "return": "the name of the token."
      },
      "owner()": {
        "return": "the address of the owner."
      },
      "pause()": {
        "details": "called by the owner to pause, triggers stopped state"
      },
      "paused()": {
        "return": "true if the contract is paused, false otherwise."
      },
      "renounceOwnership()": {
        "details": "Allows the current owner to relinquish control of the contract."
      },
      "sendBatch(address[],uint256[],address)": {
        "details": "Batch token transfer (maxium 100 transfers)",
        "params": {
          "from": "Spender address",
          "recipients": "The recipients for transfer to",
          "values": "The values"
        },
        "return": "If the operation was successful"
      },
      "symbol()": {
        "return": "the symbol of the token."
      },
      "totalSupply()": {
        "details": "Total number of tokens in existence"
      },
      "transfer(address,uint256)": {
        "details": "Overrides the OpenZeppelin default transfer",
        "params": {
          "to": "The address to transfer to.",
          "value": "The amount to be transferred."
        },
        "return": "If the operation was successful"
      },
      "transferFrom(address,address,uint256)": {
        "details": "Special WBX transfer tokens from one address to another checking the access for BCH",
        "params": {
          "from": "address The address which you want to send tokens from",
          "to": "address The address which you want to transfer to",
          "value": "uint256 the amount of tokens to be transferred"
        },
        "return": "If the operation was successful"
      },
      "transferOwnership(address)": {
        "details": "Allows the current owner to transfer control of the contract to a newOwner.",
        "params": {
          "newOwner": "The address to transfer ownership to."
        }
      },
      "unpause()": {
        "details": "called by the owner to unpause, returns to normal state"
      }
    },
    "title": "WiBX Utility Token"
  },
  "userdoc": {
    "methods": {
      "renounceOwnership()": {
        "notice": "Renouncing to ownership will leave the contract without an owner. It will not be possible to call the functions with the `onlyOwner` modifier anymore."
      },
      "taxRecipientAddr()": {
        "notice": "Returns the tax recipient account"
      }
    }
  }
}