{
  "contractName": "WibxTokenVesting",
  "abi": [
    {
      "inputs": [
        {
          "internalType": "address",
          "name": "wibxTokenAddress",
          "type": "address"
        }
      ],
      "payable": false,
      "stateMutability": "nonpayable",
      "type": "constructor"
    },
    {
      "anonymous": false,
      "inputs": [
        {
          "indexed": true,
          "internalType": "address",
          "name": "previousOwner",
          "type": "address"
        },
        {
          "indexed": true,
          "internalType": "address",
          "name": "newOwner",
          "type": "address"
        }
      ],
      "name": "OwnershipTransferred",
      "type": "event"
    },
    {
      "constant": true,
      "inputs": [],
      "name": "isOwner",
      "outputs": [
        {
          "internalType": "bool",
          "name": "",
          "type": "bool"
        }
      ],
      "payable": false,
      "stateMutability": "view",
      "type": "function"
    },
    {
      "constant": true,
      "inputs": [],
      "name": "owner",
      "outputs": [
        {
          "internalType": "address",
          "name": "",
          "type": "address"
        }
      ],
      "payable": false,
      "stateMutability": "view",
      "type": "function"
    },
    {
      "constant": false,
      "inputs": [],
      "name": "renounceOwnership",
      "outputs": [],
      "payable": false,
      "stateMutability": "nonpayable",
      "type": "function"
    },
    {
      "constant": false,
      "inputs": [
        {
          "internalType": "address",
          "name": "newOwner",
          "type": "address"
        }
      ],
      "name": "transferOwnership",
      "outputs": [],
      "payable": false,
      "stateMutability": "nonpayable",
      "type": "function"
    },
    {
      "constant": false,
      "inputs": [
        {
          "internalType": "address",
          "name": "wallet",
          "type": "address"
        },
        {
          "internalType": "uint256",
          "name": "tokenAmount",
          "type": "uint256"
        }
      ],
      "name": "addTeamMember",
      "outputs": [
        {
          "internalType": "bool",
          "name": "",
          "type": "bool"
        }
      ],
      "payable": false,
      "stateMutability": "nonpayable",
      "type": "function"
    },
    {
      "constant": false,
      "inputs": [
        {
          "internalType": "address",
          "name": "wallet",
          "type": "address"
        }
      ],
      "name": "withdrawal",
      "outputs": [
        {
          "internalType": "bool",
          "name": "",
          "type": "bool"
        }
      ],
      "payable": false,
      "stateMutability": "nonpayable",
      "type": "function"
    },
    {
      "constant": false,
      "inputs": [],
      "name": "terminateTokenVesting",
      "outputs": [],
      "payable": false,
      "stateMutability": "nonpayable",
      "type": "function"
    },
    {
      "constant": true,
      "inputs": [],
      "name": "totalWibxVestingSupply",
      "outputs": [
        {
          "internalType": "uint256",
          "name": "",
          "type": "uint256"
        }
      ],
      "payable": false,
      "stateMutability": "view",
      "type": "function"
    },
    {
      "constant": true,
      "inputs": [],
      "name": "totalAlocatedWibxVestingTokens",
      "outputs": [
        {
          "internalType": "uint256",
          "name": "",
          "type": "uint256"
        }
      ],
      "payable": false,
      "stateMutability": "view",
      "type": "function"
    },
    {
      "constant": true,
      "inputs": [
        {
          "internalType": "address",
          "name": "wallet",
          "type": "address"
        }
      ],
      "name": "remainingTokenAmount",
      "outputs": [
        {
          "internalType": "uint256",
          "name": "",
          "type": "uint256"
        }
      ],
      "payable": false,
      "stateMutability": "view",
      "type": "function"
    },
    {
      "constant": true,
      "inputs": [
        {
          "internalType": "address",
          "name": "wallet",
          "type": "address"
        }
      ],
      "name": "nextWithdrawalTime",
      "outputs": [
        {
          "internalType": "uint256",
          "name": "",
          "type": "uint256"
        }
      ],
      "payable": false,
      "stateMutability": "view",
      "type": "function"
    }
  ],
  "bytecode": "0x6080604052600060035534801561001557600080fd5b506040516117883803806117888339818101604052602081101561003857600080fd5b810190808051906020019092919050505061005761015960201b60201c565b6000806101000a81548173ffffffffffffffffffffffffffffffffffffffff021916908373ffffffffffffffffffffffffffffffffffffffff1602179055506000809054906101000a900473ffffffffffffffffffffffffffffffffffffffff1673ffffffffffffffffffffffffffffffffffffffff16600073ffffffffffffffffffffffffffffffffffffffff167f8be0079c531659141344cd1fd0a4f28419497f9722a3daafe3b4186f6b6457e060405160405180910390a380600160006101000a81548173ffffffffffffffffffffffffffffffffffffffff021916908373ffffffffffffffffffffffffffffffffffffffff16021790555050610161565b600033905090565b611618806101706000396000f3fe608060405234801561001057600080fd5b50600436106100a95760003560e01c80638da5cb5b116100715780638da5cb5b1461019e5780638f32d59b146101e8578063961310491461020a578063a6623b2e14610266578063bd8cb43e14610284578063f2fde38b146102dc576100a9565b80633a0e6a3b146100ae578063715018a6146100cc5780637c0a5051146100d65780638bb4ee771461012e5780638d13192b14610138575b600080fd5b6100b6610320565b6040518082815260200191505060405180910390f35b6100d4610401565b005b610118600480360360208110156100ec57600080fd5b81019080803573ffffffffffffffffffffffffffffffffffffffff16906020019092919050505061053a565b6040518082815260200191505060405180910390f35b610136610586565b005b6101846004803603604081101561014e57600080fd5b81019080803573ffffffffffffffffffffffffffffffffffffffff1690602001909291908035906020019092919050505061081a565b604051808215151515815260200191505060405180910390f35b6101a6610a97565b604051808273ffffffffffffffffffffffffffffffffffffffff1673ffffffffffffffffffffffffffffffffffffffff16815260200191505060405180910390f35b6101f0610ac0565b604051808215151515815260200191505060405180910390f35b61024c6004803603602081101561022057600080fd5b81019080803573ffffffffffffffffffffffffffffffffffffffff169060200190929190505050610b1e565b604051808215151515815260200191505060405180910390f35b61026e610e43565b6040518082815260200191505060405180910390f35b6102c66004803603602081101561029a57600080fd5b81019080803573ffffffffffffffffffffffffffffffffffffffff169060200190929190505050610e4d565b6040518082815260200191505060405180910390f35b61031e600480360360208110156102f257600080fd5b81019080803573ffffffffffffffffffffffffffffffffffffffff169060200190929190505050610e99565b005b6000600160009054906101000a900473ffffffffffffffffffffffffffffffffffffffff1673ffffffffffffffffffffffffffffffffffffffff166370a08231306040518263ffffffff1660e01b8152600401808273ffffffffffffffffffffffffffffffffffffffff1673ffffffffffffffffffffffffffffffffffffffff16815260200191505060206040518083038186803b1580156103c157600080fd5b505afa1580156103d5573d6000803e3d6000fd5b505050506040513d60208110156103eb57600080fd5b8101908080519060200190929190505050905090565b610409610ac0565b61047b576040517f08c379a00000000000000000000000000000000000000000000000000000000081526004018080602001828103825260208152602001807f4f776e61626c653a2063616c6c6572206973206e6f7420746865206f776e657281525060200191505060405180910390fd5b600073ffffffffffffffffffffffffffffffffffffffff166000809054906101000a900473ffffffffffffffffffffffffffffffffffffffff1673ffffffffffffffffffffffffffffffffffffffff167f8be0079c531659141344cd1fd0a4f28419497f9722a3daafe3b4186f6b6457e060405160405180910390a360008060006101000a81548173ffffffffffffffffffffffffffffffffffffffff021916908373ffffffffffffffffffffffffffffffffffffffff160217905550565b6000600260008373ffffffffffffffffffffffffffffffffffffffff1673ffffffffffffffffffffffffffffffffffffffff168152602001908152602001600020600101549050919050565b61058e610ac0565b610600576040517f08c379a00000000000000000000000000000000000000000000000000000000081526004018080602001828103825260208152602001807f4f776e61626c653a2063616c6c6572206973206e6f7420746865206f776e657281525060200191505060405180910390fd5b60006003541461065b576040517f08c379a000000000000000000000000000000000000000000000000000000000815260040180806020018281038252602681526020018061151a6026913960400191505060405180910390fd5b6000610665610320565b11156107fa57600160009054906101000a900473ffffffffffffffffffffffffffffffffffffffff1673ffffffffffffffffffffffffffffffffffffffff1663a9059cbb600160009054906101000a900473ffffffffffffffffffffffffffffffffffffffff1673ffffffffffffffffffffffffffffffffffffffff1663c1150bc76040518163ffffffff1660e01b815260040160206040518083038186803b15801561071157600080fd5b505afa158015610725573d6000803e3d6000fd5b505050506040513d602081101561073b57600080fd5b8101908080519060200190929190505050610754610320565b6040518363ffffffff1660e01b8152600401808373ffffffffffffffffffffffffffffffffffffffff1673ffffffffffffffffffffffffffffffffffffffff16815260200182815260200192505050602060405180830381600087803b1580156107bd57600080fd5b505af11580156107d1573d6000803e3d6000fd5b505050506040513d60208110156107e757600080fd5b8101908080519060200190929190505050505b610802610a97565b73ffffffffffffffffffffffffffffffffffffffff16ff5b6000610824610ac0565b610896576040517f08c379a00000000000000000000000000000000000000000000000000000000081526004018080602001828103825260208152602001807f4f776e61626c653a2063616c6c6572206973206e6f7420746865206f776e657281525060200191505060405180910390fd5b600260008473ffffffffffffffffffffffffffffffffffffffff1673ffffffffffffffffffffffffffffffffffffffff16815260200190815260200160002060040160009054906101000a900460ff1615610959576040517f08c379a00000000000000000000000000000000000000000000000000000000081526004018080602001828103825260148152602001807f4d656d62657220616c726561647920616464656400000000000000000000000081525060200191505060405180910390fd5b60008061097184600354610f1f90919063ffffffff16565b60038190555061098084610fa7565b80925081935050506040518060a001604052806000815260200185815260200183815260200182815260200160011515815250600260008773ffffffffffffffffffffffffffffffffffffffff1673ffffffffffffffffffffffffffffffffffffffff1681526020019081526020016000206000820151816000015560208201518160010155604082015181600201556060820151816003015560808201518160040160006101000a81548160ff021916908315150217905550905050600260008673ffffffffffffffffffffffffffffffffffffffff1673ffffffffffffffffffffffffffffffffffffffff16815260200190815260200160002060040160009054906101000a900460ff169250505092915050565b60008060009054906101000a900473ffffffffffffffffffffffffffffffffffffffff16905090565b60008060009054906101000a900473ffffffffffffffffffffffffffffffffffffffff1673ffffffffffffffffffffffffffffffffffffffff16610b02610feb565b73ffffffffffffffffffffffffffffffffffffffff1614905090565b600080600260008473ffffffffffffffffffffffffffffffffffffffff1673ffffffffffffffffffffffffffffffffffffffff16815260200190815260200160002090508060040160009054906101000a900460ff16610be6576040517f08c379a000000000000000000000000000000000000000000000000000000000815260040180806020018281038252601c8152602001807f546865207465616d206d656d626572206973206e6f7420666f756e640000000081525060200191505060405180910390fd5b6000816001015411610c43576040517f08c379a00000000000000000000000000000000000000000000000000000000081526004018080602001828103825260328152602001806115b26032913960400191505060405180910390fd5b6000610c9c826040518060a0016040529081600082015481526020016001820154815260200160028201548152602001600382015481526020016004820160009054906101000a900460ff161515151581525050610ff3565b905080610ca7610320565b1015610cfe576040517f08c379a000000000000000000000000000000000000000000000000000000000815260040180806020018281038252602681526020018061158c6026913960400191505060405180910390fd5b6000610d0d8360000154611035565b9050600160009054906101000a900473ffffffffffffffffffffffffffffffffffffffff1673ffffffffffffffffffffffffffffffffffffffff1663a9059cbb86846040518363ffffffff1660e01b8152600401808373ffffffffffffffffffffffffffffffffffffffff1673ffffffffffffffffffffffffffffffffffffffff16815260200182815260200192505050602060405180830381600087803b158015610db857600080fd5b505af1158015610dcc573d6000803e3d6000fd5b505050506040513d6020811015610de257600080fd5b810190808051906020019092919050505050808360000181905550610e148284600101546110da90919063ffffffff16565b8360010181905550610e31826003546110da90919063ffffffff16565b60038190555060019350505050919050565b6000600354905090565b6000600260008373ffffffffffffffffffffffffffffffffffffffff1673ffffffffffffffffffffffffffffffffffffffff168152602001908152602001600020600001549050919050565b610ea1610ac0565b610f13576040517f08c379a00000000000000000000000000000000000000000000000000000000081526004018080602001828103825260208152602001807f4f776e61626c653a2063616c6c6572206973206e6f7420746865206f776e657281525060200191505060405180910390fd5b610f1c81611124565b50565b600080828401905083811015610f9d576040517f08c379a000000000000000000000000000000000000000000000000000000000815260040180806020018281038252601b8152602001807f536166654d6174683a206164646974696f6e206f766572666c6f77000000000081525060200191505060405180910390fd5b8091505092915050565b6000806000610fb96014606486611268565b90506000610fdc600a6064610fd785896110da90919063ffffffff16565b611268565b90508181935093505050915091565b600033905090565b6000808260000151141561100d5781604001519050611030565b81602001518260600151101561102757816060015161102d565b81602001515b90505b919050565b60008042905080831115611094576040517f08c379a000000000000000000000000000000000000000000000000000000000815260040180806020018281038252602b815260200180611561602b913960400191505060405180910390fd5b60008314156110bb576110b381624f1a00610f1f90919063ffffffff16565b9150506110d5565b6110d1624f1a0084610f1f90919063ffffffff16565b9150505b919050565b600061111c83836040518060400160405280601e81526020017f536166654d6174683a207375627472616374696f6e206f766572666c6f77000081525061129d565b905092915050565b600073ffffffffffffffffffffffffffffffffffffffff168173ffffffffffffffffffffffffffffffffffffffff1614156111aa576040517f08c379a00000000000000000000000000000000000000000000000000000000081526004018080602001828103825260268152602001806114f46026913960400191505060405180910390fd5b8073ffffffffffffffffffffffffffffffffffffffff166000809054906101000a900473ffffffffffffffffffffffffffffffffffffffff1673ffffffffffffffffffffffffffffffffffffffff167f8be0079c531659141344cd1fd0a4f28419497f9722a3daafe3b4186f6b6457e060405160405180910390a3806000806101000a81548173ffffffffffffffffffffffffffffffffffffffff021916908373ffffffffffffffffffffffffffffffffffffffff16021790555050565b60008061127e858461135d90919063ffffffff16565b905061129384826113e390919063ffffffff16565b9150509392505050565b600083831115829061134a576040517f08c379a00000000000000000000000000000000000000000000000000000000081526004018080602001828103825283818151815260200191508051906020019080838360005b8381101561130f5780820151818401526020810190506112f4565b50505050905090810190601f16801561133c5780820380516001836020036101000a031916815260200191505b509250505060405180910390fd5b5060008385039050809150509392505050565b60008083141561137057600090506113dd565b600082840290508284828161138157fe5b04146113d8576040517f08c379a00000000000000000000000000000000000000000000000000000000081526004018080602001828103825260218152602001806115406021913960400191505060405180910390fd5b809150505b92915050565b600061142583836040518060400160405280601a81526020017f536166654d6174683a206469766973696f6e206279207a65726f00000000000081525061142d565b905092915050565b600080831182906114d9576040517f08c379a00000000000000000000000000000000000000000000000000000000081526004018080602001828103825283818151815260200191508051906020019080838360005b8381101561149e578082015181840152602081019050611483565b50505050905090810190601f1680156114cb5780820380516001836020036101000a031916815260200191505b509250505060405180910390fd5b5060008385816114e557fe5b04905080915050939250505056fe4f776e61626c653a206e6577206f776e657220697320746865207a65726f2061646472657373416c6c207769746864726177616c7320686176652079657420746f2074616b6520706c616365536166654d6174683a206d756c7469706c69636174696f6e206f766572666c6f77596f75206e65656420746f207761697420746865206e657874207769746864726177616c20706572696f6454686520636f6e747261637420646f65736e74206861766520666f756e647320746f207061795468657265206973206e6f206d6f726520746f6b656e7320746f207472616e7366657220746f20746869732077616c6c6574a265627a7a72315820fc024d5d410382e5ae11c4da361d567428d8ac48a6fb75f30378b8263ac6693b64736f6c634300050c0032",
  "source": "/**\n * This smart contract code is Copyright 2019 WiBX. For more information see https://wibx.io\n *\n * Licensed under the Apache License, version 2.0: https://github.com/wibxcoin/Contracts/LICENSE.txt\n */\n\npragma solidity 0.5.12;\n\nimport \"openzeppelin-solidity/contracts/math/SafeMath.sol\";\nimport \"./VestingLib.sol\";\nimport \"./WibxToken.sol\";\n\n/**\n * @title WiBX Token Vesting\n *\n * @dev Implementation of the team token vesting\n */\ncontract WibxTokenVesting is Ownable\n{\n    using SafeMath for uint256;\n\n    /**\n     * Wibx Token Instance\n     */\n    WibxToken private _wibxToken;\n\n    /**\n     * All team members\n     */\n    mapping (address => VestingLib.TeamMember) private _members;\n\n    /**\n     * Total Wibx tokens allocated in this vesting contract\n     */\n    uint256 private _alocatedWibxVestingTokens = 0;\n\n    constructor(address wibxTokenAddress) public\n    {\n        _wibxToken = WibxToken(wibxTokenAddress);\n    }\n\n    /**\n     * @dev Add a new team member to withdrawal tokens.\n     *\n     * @param wallet The member wallet address\n     * @param tokenAmount The token amount desired by the team member\n     * @return If the transaction was successful\n     */\n    function addTeamMember(address wallet, uint256 tokenAmount) public onlyOwner returns (bool)\n    {\n        require(!_members[wallet].active, \"Member already added\");\n\n        uint256 firstTransfer;\n        uint256 eachMonthTransfer;\n\n        _alocatedWibxVestingTokens = _alocatedWibxVestingTokens.add(tokenAmount);\n        (firstTransfer, eachMonthTransfer) = VestingLib._calculateMemberEarnings(tokenAmount);\n\n        _members[wallet] = VestingLib.TeamMember({\n            totalRemainingAmount: tokenAmount,\n            firstTransferValue: firstTransfer,\n            eachTransferValue: eachMonthTransfer,\n            nextWithdrawal: 0,\n            active: true\n        });\n\n        return _members[wallet].active;\n    }\n\n    /**\n     * @dev Withdrawal team tokens to the selected wallet\n     *\n     * @param wallet The team member wallet\n     * @return If the transaction was successful\n     */\n    function withdrawal(address wallet) public returns (bool)\n    {\n        VestingLib.TeamMember storage member = _members[wallet];\n\n        require(member.active, \"The team member is not found\");\n        require(member.totalRemainingAmount > 0, \"There is no more tokens to transfer to this wallet\");\n\n        uint256 amountToTransfer = VestingLib._checkAmountForPay(member);\n        require(totalWibxVestingSupply() >= amountToTransfer, \"The contract doesnt have founds to pay\");\n\n        uint256 nextWithdrawalTime = VestingLib._updateNextWithdrawalTime(member.nextWithdrawal);\n\n        _wibxToken.transfer(wallet, amountToTransfer);\n\n        member.nextWithdrawal = nextWithdrawalTime;\n        member.totalRemainingAmount = member.totalRemainingAmount.sub(amountToTransfer);\n        _alocatedWibxVestingTokens = _alocatedWibxVestingTokens.sub(amountToTransfer);\n\n        return true;\n    }\n\n    /**\n     * @dev Clean everything and terminate this token vesting\n     */\n    function terminateTokenVesting() public onlyOwner\n    {\n        require(_alocatedWibxVestingTokens == 0, \"All withdrawals have yet to take place\");\n\n        if (totalWibxVestingSupply() > 0)\n        {\n            _wibxToken.transfer(_wibxToken.taxRecipientAddr(), totalWibxVestingSupply());\n        }\n\n        /**\n         * Due to the Owner's Ownable (from OpenZeppelin) is not flagged as payable,\n         * we need to cast it here.\n         */\n        selfdestruct(address(uint160(owner())));\n    }\n\n    /**\n     * @dev Get the token supply in this contract to be delivered to team members.\n     */\n    function totalWibxVestingSupply() public view returns (uint256)\n    {\n        return _wibxToken.balanceOf(address(this));\n    }\n\n    /**\n     * @dev Returns all tokens allocated to users.\n     */\n    function totalAlocatedWibxVestingTokens() public view returns (uint256)\n    {\n        return _alocatedWibxVestingTokens;\n    }\n\n    /**\n     * @dev Get the remaining token for some member.\n     *\n     * @param wallet The member's wallet address.\n     */\n    function remainingTokenAmount(address wallet) public view returns (uint256)\n    {\n        return _members[wallet].totalRemainingAmount;\n    }\n\n    /**\n     * @dev Get the next withdrawal day of the user.\n     *\n     * @param wallet The member's wallet address.\n     */\n    function nextWithdrawalTime(address wallet) public view returns (uint256)\n    {\n        return _members[wallet].nextWithdrawal;\n    }\n}",
  "sourcePath": "/Users/edizon/projetos/wiboo/plataforma/Contracts/wibx/contracts/WibxTokenVesting.sol",
  "compiler": {
    "name": "solc",
    "version": "0.5.12+commit.7709ece9.Emscripten.clang"
  },
  "schemaVersion": "3.0.19",
  "updatedAt": "2020-03-07T18:08:34.182Z",
  "networkType": "ethereum",
  "devdoc": {
    "details": "Implementation of the team token vesting",
    "methods": {
      "addTeamMember(address,uint256)": {
        "details": "Add a new team member to withdrawal tokens.",
        "params": {
          "tokenAmount": "The token amount desired by the team member",
          "wallet": "The member wallet address"
        },
        "return": "If the transaction was successful"
      },
      "isOwner()": {
        "details": "Returns true if the caller is the current owner."
      },
      "nextWithdrawalTime(address)": {
        "details": "Get the next withdrawal day of the user.",
        "params": {
          "wallet": "The member's wallet address."
        }
      },
      "owner()": {
        "details": "Returns the address of the current owner."
      },
      "remainingTokenAmount(address)": {
        "details": "Get the remaining token for some member.",
        "params": {
          "wallet": "The member's wallet address."
        }
      },
      "renounceOwnership()": {
        "details": "Leaves the contract without owner. It will not be possible to call `onlyOwner` functions anymore. Can only be called by the current owner.     * NOTE: Renouncing ownership will leave the contract without an owner, thereby removing any functionality that is only available to the owner."
      },
      "terminateTokenVesting()": {
        "details": "Clean everything and terminate this token vesting"
      },
      "totalAlocatedWibxVestingTokens()": {
        "details": "Returns all tokens allocated to users."
      },
      "totalWibxVestingSupply()": {
        "details": "Get the token supply in this contract to be delivered to team members."
      },
      "transferOwnership(address)": {
        "details": "Transfers ownership of the contract to a new account (`newOwner`). Can only be called by the current owner."
      },
      "withdrawal(address)": {
        "details": "Withdrawal team tokens to the selected wallet",
        "params": {
          "wallet": "The team member wallet"
        },
        "return": "If the transaction was successful"
      }
    },
    "title": "WiBX Token Vesting"
  },
  "userdoc": {
    "methods": {}
  }
}