{
  "contractName": "WibxTokenVesting",
  "abi": [
    {
      "constant": false,
      "inputs": [],
      "name": "renounceOwnership",
      "outputs": [],
      "payable": false,
      "stateMutability": "nonpayable",
      "type": "function",
      "signature": "0x715018a6"
    },
    {
      "constant": true,
      "inputs": [],
      "name": "owner",
      "outputs": [
        {
          "name": "",
          "type": "address"
        }
      ],
      "payable": false,
      "stateMutability": "view",
      "type": "function",
      "signature": "0x8da5cb5b"
    },
    {
      "constant": true,
      "inputs": [],
      "name": "isOwner",
      "outputs": [
        {
          "name": "",
          "type": "bool"
        }
      ],
      "payable": false,
      "stateMutability": "view",
      "type": "function",
      "signature": "0x8f32d59b"
    },
    {
      "constant": false,
      "inputs": [
        {
          "name": "newOwner",
          "type": "address"
        }
      ],
      "name": "transferOwnership",
      "outputs": [],
      "payable": false,
      "stateMutability": "nonpayable",
      "type": "function",
      "signature": "0xf2fde38b"
    },
    {
      "inputs": [
        {
          "name": "wibxTokenAddress",
          "type": "address"
        }
      ],
      "payable": false,
      "stateMutability": "nonpayable",
      "type": "constructor",
      "signature": "constructor"
    },
    {
      "anonymous": false,
      "inputs": [
        {
          "indexed": true,
          "name": "previousOwner",
          "type": "address"
        },
        {
          "indexed": true,
          "name": "newOwner",
          "type": "address"
        }
      ],
      "name": "OwnershipTransferred",
      "type": "event",
      "signature": "0x8be0079c531659141344cd1fd0a4f28419497f9722a3daafe3b4186f6b6457e0"
    },
    {
      "constant": false,
      "inputs": [
        {
          "name": "wallet",
          "type": "address"
        },
        {
          "name": "tokenAmount",
          "type": "uint256"
        }
      ],
      "name": "addTeamMember",
      "outputs": [
        {
          "name": "",
          "type": "bool"
        }
      ],
      "payable": false,
      "stateMutability": "nonpayable",
      "type": "function",
      "signature": "0x8d13192b"
    },
    {
      "constant": false,
      "inputs": [
        {
          "name": "wallet",
          "type": "address"
        }
      ],
      "name": "withdrawal",
      "outputs": [
        {
          "name": "",
          "type": "bool"
        }
      ],
      "payable": false,
      "stateMutability": "nonpayable",
      "type": "function",
      "signature": "0x96131049"
    },
    {
      "constant": false,
      "inputs": [],
      "name": "terminateTokenVesting",
      "outputs": [],
      "payable": false,
      "stateMutability": "nonpayable",
      "type": "function",
      "signature": "0x8bb4ee77"
    },
    {
      "constant": true,
      "inputs": [],
      "name": "totalWibxVestingSupply",
      "outputs": [
        {
          "name": "",
          "type": "uint256"
        }
      ],
      "payable": false,
      "stateMutability": "view",
      "type": "function",
      "signature": "0x3a0e6a3b"
    },
    {
      "constant": true,
      "inputs": [],
      "name": "totalAlocatedWibxVestingTokens",
      "outputs": [
        {
          "name": "",
          "type": "uint256"
        }
      ],
      "payable": false,
      "stateMutability": "view",
      "type": "function",
      "signature": "0xa6623b2e"
    },
    {
      "constant": true,
      "inputs": [
        {
          "name": "wallet",
          "type": "address"
        }
      ],
      "name": "remainingTokenAmount",
      "outputs": [
        {
          "name": "",
          "type": "uint256"
        }
      ],
      "payable": false,
      "stateMutability": "view",
      "type": "function",
      "signature": "0x7c0a5051"
    },
    {
      "constant": true,
      "inputs": [
        {
          "name": "wallet",
          "type": "address"
        }
      ],
      "name": "nextWithdrawalTime",
      "outputs": [
        {
          "name": "",
          "type": "uint256"
        }
      ],
      "payable": false,
      "stateMutability": "view",
      "type": "function",
      "signature": "0xbd8cb43e"
    }
  ],
  "bytecode": "0x6080604052600060035534801561001557600080fd5b5060405160208061141f8339810180604052602081101561003557600080fd5b8101908080519060200190929190505050336000806101000a81548173ffffffffffffffffffffffffffffffffffffffff021916908373ffffffffffffffffffffffffffffffffffffffff1602179055506000809054906101000a900473ffffffffffffffffffffffffffffffffffffffff1673ffffffffffffffffffffffffffffffffffffffff16600073ffffffffffffffffffffffffffffffffffffffff167f8be0079c531659141344cd1fd0a4f28419497f9722a3daafe3b4186f6b6457e060405160405180910390a380600160006101000a81548173ffffffffffffffffffffffffffffffffffffffff021916908373ffffffffffffffffffffffffffffffffffffffff160217905550506112cc806101536000396000f3fe6080604052600436106100af576000357c0100000000000000000000000000000000000000000000000000000000900463ffffffff1680633a0e6a3b146100b4578063715018a6146100df5780637c0a5051146100f65780638bb4ee771461015b5780638d13192b146101725780638da5cb5b146101e55780638f32d59b1461023c578063961310491461026b578063a6623b2e146102d4578063bd8cb43e146102ff578063f2fde38b14610364575b600080fd5b3480156100c057600080fd5b506100c96103b5565b6040518082815260200191505060405180910390f35b3480156100eb57600080fd5b506100f46104b2565b005b34801561010257600080fd5b506101456004803603602081101561011957600080fd5b81019080803573ffffffffffffffffffffffffffffffffffffffff169060200190929190505050610584565b6040518082815260200191505060405180910390f35b34801561016757600080fd5b506101706105d0565b005b34801561017e57600080fd5b506101cb6004803603604081101561019557600080fd5b81019080803573ffffffffffffffffffffffffffffffffffffffff1690602001909291908035906020019092919050505061087a565b604051808215151515815260200191505060405180910390f35b3480156101f157600080fd5b506101fa610a93565b604051808273ffffffffffffffffffffffffffffffffffffffff1673ffffffffffffffffffffffffffffffffffffffff16815260200191505060405180910390f35b34801561024857600080fd5b50610251610abc565b604051808215151515815260200191505060405180910390f35b34801561027757600080fd5b506102ba6004803603602081101561028e57600080fd5b81019080803573ffffffffffffffffffffffffffffffffffffffff169060200190929190505050610b13565b604051808215151515815260200191505060405180910390f35b3480156102e057600080fd5b506102e9610ee1565b6040518082815260200191505060405180910390f35b34801561030b57600080fd5b5061034e6004803603602081101561032257600080fd5b81019080803573ffffffffffffffffffffffffffffffffffffffff169060200190929190505050610eeb565b6040518082815260200191505060405180910390f35b34801561037057600080fd5b506103b36004803603602081101561038757600080fd5b81019080803573ffffffffffffffffffffffffffffffffffffffff169060200190929190505050610f37565b005b6000600160009054906101000a900473ffffffffffffffffffffffffffffffffffffffff1673ffffffffffffffffffffffffffffffffffffffff166370a08231306040518263ffffffff167c0100000000000000000000000000000000000000000000000000000000028152600401808273ffffffffffffffffffffffffffffffffffffffff1673ffffffffffffffffffffffffffffffffffffffff16815260200191505060206040518083038186803b15801561047257600080fd5b505afa158015610486573d6000803e3d6000fd5b505050506040513d602081101561049c57600080fd5b8101908080519060200190929190505050905090565b6104ba610abc565b15156104c557600080fd5b600073ffffffffffffffffffffffffffffffffffffffff166000809054906101000a900473ffffffffffffffffffffffffffffffffffffffff1673ffffffffffffffffffffffffffffffffffffffff167f8be0079c531659141344cd1fd0a4f28419497f9722a3daafe3b4186f6b6457e060405160405180910390a360008060006101000a81548173ffffffffffffffffffffffffffffffffffffffff021916908373ffffffffffffffffffffffffffffffffffffffff160217905550565b6000600260008373ffffffffffffffffffffffffffffffffffffffff1673ffffffffffffffffffffffffffffffffffffffff168152602001908152602001600020600101549050919050565b6105d8610abc565b15156105e357600080fd5b6000600354141515610683576040517f08c379a00000000000000000000000000000000000000000000000000000000081526004018080602001828103825260268152602001807f416c6c207769746864726177616c7320686176652079657420746f2074616b6581526020017f20706c616365000000000000000000000000000000000000000000000000000081525060400191505060405180910390fd5b600061068d6103b5565b111561085a57600160009054906101000a900473ffffffffffffffffffffffffffffffffffffffff1673ffffffffffffffffffffffffffffffffffffffff1663a9059cbb600160009054906101000a900473ffffffffffffffffffffffffffffffffffffffff1673ffffffffffffffffffffffffffffffffffffffff1663c1150bc76040518163ffffffff167c010000000000000000000000000000000000000000000000000000000002815260040160206040518083038186803b15801561075557600080fd5b505afa158015610769573d6000803e3d6000fd5b505050506040513d602081101561077f57600080fd5b81019080805190602001909291905050506107986103b5565b6040518363ffffffff167c0100000000000000000000000000000000000000000000000000000000028152600401808373ffffffffffffffffffffffffffffffffffffffff1673ffffffffffffffffffffffffffffffffffffffff16815260200182815260200192505050602060405180830381600087803b15801561081d57600080fd5b505af1158015610831573d6000803e3d6000fd5b505050506040513d602081101561084757600080fd5b8101908080519060200190929190505050505b610862610a93565b73ffffffffffffffffffffffffffffffffffffffff16ff5b6000610884610abc565b151561088f57600080fd5b600260008473ffffffffffffffffffffffffffffffffffffffff1673ffffffffffffffffffffffffffffffffffffffff16815260200190815260200160002060040160009054906101000a900460ff16151515610954576040517f08c379a00000000000000000000000000000000000000000000000000000000081526004018080602001828103825260148152602001807f4d656d62657220616c726561647920616464656400000000000000000000000081525060200191505060405180910390fd5b60008061096c84600354610f5690919063ffffffff16565b60038190555061097b84610f77565b809250819350505060a0604051908101604052806000815260200185815260200183815260200182815260200160011515815250600260008773ffffffffffffffffffffffffffffffffffffffff1673ffffffffffffffffffffffffffffffffffffffff1681526020019081526020016000206000820151816000015560208201518160010155604082015181600201556060820151816003015560808201518160040160006101000a81548160ff021916908315150217905550905050600260008673ffffffffffffffffffffffffffffffffffffffff1673ffffffffffffffffffffffffffffffffffffffff16815260200190815260200160002060040160009054906101000a900460ff169250505092915050565b60008060009054906101000a900473ffffffffffffffffffffffffffffffffffffffff16905090565b60008060009054906101000a900473ffffffffffffffffffffffffffffffffffffffff1673ffffffffffffffffffffffffffffffffffffffff163373ffffffffffffffffffffffffffffffffffffffff1614905090565b600080600260008473ffffffffffffffffffffffffffffffffffffffff1673ffffffffffffffffffffffffffffffffffffffff16815260200190815260200160002090508060040160009054906101000a900460ff161515610bdd576040517f08c379a000000000000000000000000000000000000000000000000000000000815260040180806020018281038252601c8152602001807f546865207465616d206d656d626572206973206e6f7420666f756e640000000081525060200191505060405180910390fd5b60008160010154111515610c7f576040517f08c379a00000000000000000000000000000000000000000000000000000000081526004018080602001828103825260328152602001807f5468657265206973206e6f206d6f726520746f6b656e7320746f207472616e7381526020017f66657220746f20746869732077616c6c6574000000000000000000000000000081525060400191505060405180910390fd5b6000610cd98260a06040519081016040529081600082015481526020016001820154815260200160028201548152602001600382015481526020016004820160009054906101000a900460ff161515151581525050610fbb565b905080610ce46103b5565b10151515610d80576040517f08c379a00000000000000000000000000000000000000000000000000000000081526004018080602001828103825260268152602001807f54686520636f6e747261637420646f65736e74206861766520666f756e64732081526020017f746f20706179000000000000000000000000000000000000000000000000000081525060400191505060405180910390fd5b6000610d8f8360000154610ffd565b9050600160009054906101000a900473ffffffffffffffffffffffffffffffffffffffff1673ffffffffffffffffffffffffffffffffffffffff1663a9059cbb86846040518363ffffffff167c0100000000000000000000000000000000000000000000000000000000028152600401808373ffffffffffffffffffffffffffffffffffffffff1673ffffffffffffffffffffffffffffffffffffffff16815260200182815260200192505050602060405180830381600087803b158015610e5657600080fd5b505af1158015610e6a573d6000803e3d6000fd5b505050506040513d6020811015610e8057600080fd5b810190808051906020019092919050505050808360000181905550610eb28284600101546110e790919063ffffffff16565b8360010181905550610ecf826003546110e790919063ffffffff16565b60038190555060019350505050919050565b6000600354905090565b6000600260008373ffffffffffffffffffffffffffffffffffffffff1673ffffffffffffffffffffffffffffffffffffffff168152602001908152602001600020600001549050919050565b610f3f610abc565b1515610f4a57600080fd5b610f5381611109565b50565b6000808284019050838110151515610f6d57600080fd5b8091505092915050565b6000806000610f896014606486611203565b90506000610fac600a6064610fa785896110e790919063ffffffff16565b611203565b90508181935093505050915091565b60008082600001511415610fd55781604001519050610ff8565b816020015182606001511015610fef578160600151610ff5565b81602001515b90505b919050565b6000804290508083111515156110a1576040517f08c379a000000000000000000000000000000000000000000000000000000000815260040180806020018281038252602b8152602001807f596f75206e65656420746f207761697420746865206e6578742077697468647281526020017f6177616c20706572696f6400000000000000000000000000000000000000000081525060400191505060405180910390fd5b60008314156110c8576110c081624f1a00610f5690919063ffffffff16565b9150506110e2565b6110de624f1a0084610f5690919063ffffffff16565b9150505b919050565b60008282111515156110f857600080fd5b600082840390508091505092915050565b600073ffffffffffffffffffffffffffffffffffffffff168173ffffffffffffffffffffffffffffffffffffffff161415151561114557600080fd5b8073ffffffffffffffffffffffffffffffffffffffff166000809054906101000a900473ffffffffffffffffffffffffffffffffffffffff1673ffffffffffffffffffffffffffffffffffffffff167f8be0079c531659141344cd1fd0a4f28419497f9722a3daafe3b4186f6b6457e060405160405180910390a3806000806101000a81548173ffffffffffffffffffffffffffffffffffffffff021916908373ffffffffffffffffffffffffffffffffffffffff16021790555050565b600080611219858461123890919063ffffffff16565b905061122e848261127690919063ffffffff16565b9150509392505050565b60008083141561124b5760009050611270565b6000828402905082848281151561125e57fe5b0414151561126b57600080fd5b809150505b92915050565b6000808211151561128657600080fd5b6000828481151561129357fe5b049050809150509291505056fea165627a7a723058209ef5e0612cd1ad9ed878ab9e761783cfa5448132ddfd0fa0ea27ed0ac5d53a9d0029",
  "source": "/**\n * This smart contract code is Copyright 2019 WiBX. For more information see https://wibx.io\n *\n * Licensed under the Apache License, version 2.0: https://github.com/wibxcoin/Contracts/LICENSE.txt\n */\n\npragma solidity 0.5.0;\n\nimport \"openzeppelin-solidity/contracts/math/SafeMath.sol\";\nimport \"./VestingLib.sol\";\nimport \"./TaxLib.sol\";\nimport \"./WibxToken.sol\";\n\n/**\n * @title WiBX Token Vesting\n *\n * @dev Implementation of the team token vesting\n */\ncontract WibxTokenVesting is Ownable\n{\n    using SafeMath for uint256;\n\n    /**\n     * Wibx Token Instance\n     */\n    WibxToken private _wibxToken;\n\n    /**\n     * All team members\n     */\n    mapping (address => VestingLib.TeamMember) private _members;\n\n    /**\n     * Total Wibx tokens allocated in this vesting contract\n     */\n    uint256 private _alocatedWibxVestingTokens = 0;\n\n    constructor(address wibxTokenAddress) public\n    {\n        _wibxToken = WibxToken(wibxTokenAddress);\n    }\n\n    /**\n     * @dev Add a new team member to withdrawal tokens.\n     *\n     * @param wallet The member wallet address\n     * @param tokenAmount The token amount desired by the team member\n     * @return If the transaction was successful\n     */\n    function addTeamMember(address wallet, uint256 tokenAmount) public onlyOwner returns (bool)\n    {\n        require(!_members[wallet].active, \"Member already added\");\n\n        uint256 firstTransfer;\n        uint256 eachMonthTransfer;\n\n        _alocatedWibxVestingTokens = _alocatedWibxVestingTokens.add(tokenAmount);\n        (firstTransfer, eachMonthTransfer) = VestingLib._calculateMemberEarnings(tokenAmount);\n\n        _members[wallet] = VestingLib.TeamMember({\n            totalRemainingAmount: tokenAmount,\n            firstTransferValue: firstTransfer,\n            eachTransferValue: eachMonthTransfer,\n            nextWithdrawal: 0,\n            active: true\n        });\n\n        return _members[wallet].active;\n    }\n\n    /**\n     * @dev Withdrawal team tokens to the selected wallet\n     *\n     * @param wallet The team member wallet\n     * @return If the transaction was successful\n     */\n    function withdrawal(address wallet) public returns (bool)\n    {\n        VestingLib.TeamMember storage member = _members[wallet];\n\n        require(member.active, \"The team member is not found\");\n        require(member.totalRemainingAmount > 0, \"There is no more tokens to transfer to this wallet\");\n\n        uint256 amountToTransfer = VestingLib._checkAmountForPay(member);\n        require(totalWibxVestingSupply() >= amountToTransfer, \"The contract doesnt have founds to pay\");\n\n        uint256 nextWithdrawalTime = VestingLib._updateNextWithdrawalTime(member.nextWithdrawal);\n\n        _wibxToken.transfer(wallet, amountToTransfer);\n\n        member.nextWithdrawal = nextWithdrawalTime;\n        member.totalRemainingAmount = member.totalRemainingAmount.sub(amountToTransfer);\n        _alocatedWibxVestingTokens = _alocatedWibxVestingTokens.sub(amountToTransfer);\n\n        return true;\n    }\n\n    /**\n     * @dev Clean everything and terminate this token vesting\n     */\n    function terminateTokenVesting() public onlyOwner\n    {\n        require(_alocatedWibxVestingTokens == 0, \"All withdrawals have yet to take place\");\n\n        if (totalWibxVestingSupply() > 0)\n        {\n            _wibxToken.transfer(_wibxToken.taxRecipientAddr(), totalWibxVestingSupply());\n        }\n\n        /**\n         * Due to the Owner's Ownable (from OpenZeppelin) is not flagged as payable,\n         * we need to cast it here.\n         */\n        selfdestruct(address(uint160(owner())));\n    }\n\n    /**\n     * @dev Get the token supply in this contract to be delivered to team members.\n     */\n    function totalWibxVestingSupply() public view returns (uint256)\n    {\n        return _wibxToken.balanceOf(address(this));\n    }\n\n    /**\n     * @dev Returns all tokens allocated to users.\n     */\n    function totalAlocatedWibxVestingTokens() public view returns (uint256)\n    {\n        return _alocatedWibxVestingTokens;\n    }\n\n    /**\n     * @dev Get the remaining token for some member.\n     *\n     * @param wallet The member's wallet address.\n     */\n    function remainingTokenAmount(address wallet) public view returns (uint256)\n    {\n        return _members[wallet].totalRemainingAmount;\n    }\n\n    /**\n     * @dev Get the next withdrawal day of the user.\n     *\n     * @param wallet The member's wallet address.\n     */\n    function nextWithdrawalTime(address wallet) public view returns (uint256)\n    {\n        return _members[wallet].nextWithdrawal;\n    }\n}",
  "sourcePath": "/home/gabriel/Documents/gitViews/wibxcoin/Contracts/wibx/contracts/WibxTokenVesting.sol",
  "compiler": {
    "name": "solc",
    "version": "0.5.0+commit.1d4f565a.Emscripten.clang"
  },
  "schemaVersion": "3.0.1",
  "updatedAt": "2019-03-13T02:40:45.376Z",
  "devdoc": {
    "details": "Implementation of the team token vesting",
    "methods": {
      "addTeamMember(address,uint256)": {
        "details": "Add a new team member to withdrawal tokens.",
        "params": {
          "tokenAmount": "The token amount desired by the team member",
          "wallet": "The member wallet address"
        },
        "return": "If the transaction was successful"
      },
      "isOwner()": {
        "return": "true if `msg.sender` is the owner of the contract."
      },
      "nextWithdrawalTime(address)": {
        "details": "Get the next withdrawal day of the user.",
        "params": {
          "wallet": "The member's wallet address."
        }
      },
      "owner()": {
        "return": "the address of the owner."
      },
      "remainingTokenAmount(address)": {
        "details": "Get the remaining token for some member.",
        "params": {
          "wallet": "The member's wallet address."
        }
      },
      "renounceOwnership()": {
        "details": "Allows the current owner to relinquish control of the contract."
      },
      "terminateTokenVesting()": {
        "details": "Clean everything and terminate this token vesting"
      },
      "totalAlocatedWibxVestingTokens()": {
        "details": "Returns all tokens allocated to users."
      },
      "totalWibxVestingSupply()": {
        "details": "Get the token supply in this contract to be delivered to team members."
      },
      "transferOwnership(address)": {
        "details": "Allows the current owner to transfer control of the contract to a newOwner.",
        "params": {
          "newOwner": "The address to transfer ownership to."
        }
      },
      "withdrawal(address)": {
        "details": "Withdrawal team tokens to the selected wallet",
        "params": {
          "wallet": "The team member wallet"
        },
        "return": "If the transaction was successful"
      }
    },
    "title": "WiBX Token Vesting"
  },
  "userdoc": {
    "methods": {
      "renounceOwnership()": {
        "notice": "Renouncing to ownership will leave the contract without an owner. It will not be possible to call the functions with the `onlyOwner` modifier anymore."
      }
    }
  }
}