{
  "contractName": "WibxToken",
  "abi": [
    {
      "inputs": [
        {
          "internalType": "address",
          "name": "bchAddress",
          "type": "address"
        },
        {
          "internalType": "address",
          "name": "taxRecipientAddr",
          "type": "address"
        }
      ],
      "payable": false,
      "stateMutability": "nonpayable",
      "type": "constructor"
    },
    {
      "anonymous": false,
      "inputs": [
        {
          "indexed": true,
          "internalType": "address",
          "name": "owner",
          "type": "address"
        },
        {
          "indexed": true,
          "internalType": "address",
          "name": "spender",
          "type": "address"
        },
        {
          "indexed": false,
          "internalType": "uint256",
          "name": "value",
          "type": "uint256"
        }
      ],
      "name": "Approval",
      "type": "event"
    },
    {
      "anonymous": false,
      "inputs": [
        {
          "indexed": true,
          "internalType": "address",
          "name": "to",
          "type": "address"
        },
        {
          "indexed": false,
          "internalType": "bool",
          "name": "state",
          "type": "bool"
        }
      ],
      "name": "BchApproval",
      "type": "event"
    },
    {
      "anonymous": false,
      "inputs": [
        {
          "indexed": true,
          "internalType": "address",
          "name": "previousOwner",
          "type": "address"
        },
        {
          "indexed": true,
          "internalType": "address",
          "name": "newOwner",
          "type": "address"
        }
      ],
      "name": "OwnershipTransferred",
      "type": "event"
    },
    {
      "anonymous": false,
      "inputs": [
        {
          "indexed": false,
          "internalType": "address",
          "name": "account",
          "type": "address"
        }
      ],
      "name": "Paused",
      "type": "event"
    },
    {
      "anonymous": false,
      "inputs": [
        {
          "indexed": true,
          "internalType": "address",
          "name": "account",
          "type": "address"
        }
      ],
      "name": "PauserAdded",
      "type": "event"
    },
    {
      "anonymous": false,
      "inputs": [
        {
          "indexed": true,
          "internalType": "address",
          "name": "account",
          "type": "address"
        }
      ],
      "name": "PauserRemoved",
      "type": "event"
    },
    {
      "anonymous": false,
      "inputs": [
        {
          "indexed": false,
          "internalType": "uint256",
          "name": "oldAmount",
          "type": "uint256"
        },
        {
          "indexed": false,
          "internalType": "uint256",
          "name": "oldShift",
          "type": "uint256"
        },
        {
          "indexed": false,
          "internalType": "uint256",
          "name": "newAmount",
          "type": "uint256"
        },
        {
          "indexed": false,
          "internalType": "uint256",
          "name": "newShift",
          "type": "uint256"
        }
      ],
      "name": "TaxChange",
      "type": "event"
    },
    {
      "anonymous": false,
      "inputs": [
        {
          "indexed": true,
          "internalType": "address",
          "name": "from",
          "type": "address"
        },
        {
          "indexed": true,
          "internalType": "address",
          "name": "to",
          "type": "address"
        },
        {
          "indexed": false,
          "internalType": "uint256",
          "name": "value",
          "type": "uint256"
        }
      ],
      "name": "Transfer",
      "type": "event"
    },
    {
      "anonymous": false,
      "inputs": [
        {
          "indexed": false,
          "internalType": "address",
          "name": "account",
          "type": "address"
        }
      ],
      "name": "Unpaused",
      "type": "event"
    },
    {
      "constant": true,
      "inputs": [],
      "name": "INITIAL_SUPPLY",
      "outputs": [
        {
          "internalType": "uint256",
          "name": "",
          "type": "uint256"
        }
      ],
      "payable": false,
      "stateMutability": "view",
      "type": "function"
    },
    {
      "constant": false,
      "inputs": [
        {
          "internalType": "address",
          "name": "account",
          "type": "address"
        }
      ],
      "name": "addPauser",
      "outputs": [],
      "payable": false,
      "stateMutability": "nonpayable",
      "type": "function"
    },
    {
      "constant": true,
      "inputs": [
        {
          "internalType": "address",
          "name": "owner",
          "type": "address"
        },
        {
          "internalType": "address",
          "name": "spender",
          "type": "address"
        }
      ],
      "name": "allowance",
      "outputs": [
        {
          "internalType": "uint256",
          "name": "",
          "type": "uint256"
        }
      ],
      "payable": false,
      "stateMutability": "view",
      "type": "function"
    },
    {
      "constant": true,
      "inputs": [
        {
          "internalType": "uint256",
          "name": "value",
          "type": "uint256"
        }
      ],
      "name": "amountToCleanBalance",
      "outputs": [
        {
          "internalType": "uint256",
          "name": "",
          "type": "uint256"
        }
      ],
      "payable": false,
      "stateMutability": "view",
      "type": "function"
    },
    {
      "constant": false,
      "inputs": [
        {
          "internalType": "address",
          "name": "spender",
          "type": "address"
        },
        {
          "internalType": "uint256",
          "name": "value",
          "type": "uint256"
        }
      ],
      "name": "approve",
      "outputs": [
        {
          "internalType": "bool",
          "name": "",
          "type": "bool"
        }
      ],
      "payable": false,
      "stateMutability": "nonpayable",
      "type": "function"
    },
    {
      "constant": true,
      "inputs": [
        {
          "internalType": "address",
          "name": "account",
          "type": "address"
        }
      ],
      "name": "balanceOf",
      "outputs": [
        {
          "internalType": "uint256",
          "name": "",
          "type": "uint256"
        }
      ],
      "payable": false,
      "stateMutability": "view",
      "type": "function"
    },
    {
      "constant": false,
      "inputs": [],
      "name": "bchAuthorize",
      "outputs": [
        {
          "internalType": "bool",
          "name": "",
          "type": "bool"
        }
      ],
      "payable": false,
      "stateMutability": "nonpayable",
      "type": "function"
    },
    {
      "constant": false,
      "inputs": [],
      "name": "bchRevoke",
      "outputs": [
        {
          "internalType": "bool",
          "name": "",
          "type": "bool"
        }
      ],
      "payable": false,
      "stateMutability": "nonpayable",
      "type": "function"
    },
    {
      "constant": false,
      "inputs": [
        {
          "internalType": "uint256",
          "name": "amount",
          "type": "uint256"
        }
      ],
      "name": "burn",
      "outputs": [],
      "payable": false,
      "stateMutability": "nonpayable",
      "type": "function"
    },
    {
      "constant": false,
      "inputs": [
        {
          "internalType": "address",
          "name": "account",
          "type": "address"
        },
        {
          "internalType": "uint256",
          "name": "amount",
          "type": "uint256"
        }
      ],
      "name": "burnFrom",
      "outputs": [],
      "payable": false,
      "stateMutability": "nonpayable",
      "type": "function"
    },
    {
      "constant": false,
      "inputs": [
        {
          "internalType": "uint256",
          "name": "amount",
          "type": "uint256"
        },
        {
          "internalType": "uint256",
          "name": "shift",
          "type": "uint256"
        }
      ],
      "name": "changeTax",
      "outputs": [],
      "payable": false,
      "stateMutability": "nonpayable",
      "type": "function"
    },
    {
      "constant": true,
      "inputs": [],
      "name": "currentTaxAmount",
      "outputs": [
        {
          "internalType": "uint256",
          "name": "",
          "type": "uint256"
        }
      ],
      "payable": false,
      "stateMutability": "view",
      "type": "function"
    },
    {
      "constant": true,
      "inputs": [],
      "name": "currentTaxShift",
      "outputs": [
        {
          "internalType": "uint256",
          "name": "",
          "type": "uint256"
        }
      ],
      "payable": false,
      "stateMutability": "view",
      "type": "function"
    },
    {
      "constant": true,
      "inputs": [],
      "name": "decimals",
      "outputs": [
        {
          "internalType": "uint8",
          "name": "",
          "type": "uint8"
        }
      ],
      "payable": false,
      "stateMutability": "view",
      "type": "function"
    },
    {
      "constant": false,
      "inputs": [
        {
          "internalType": "address",
          "name": "spender",
          "type": "address"
        },
        {
          "internalType": "uint256",
          "name": "subtractedValue",
          "type": "uint256"
        }
      ],
      "name": "decreaseAllowance",
      "outputs": [
        {
          "internalType": "bool",
          "name": "",
          "type": "bool"
        }
      ],
      "payable": false,
      "stateMutability": "nonpayable",
      "type": "function"
    },
    {
      "constant": false,
      "inputs": [
        {
          "internalType": "address",
          "name": "spender",
          "type": "address"
        },
        {
          "internalType": "uint256",
          "name": "addedValue",
          "type": "uint256"
        }
      ],
      "name": "increaseAllowance",
      "outputs": [
        {
          "internalType": "bool",
          "name": "",
          "type": "bool"
        }
      ],
      "payable": false,
      "stateMutability": "nonpayable",
      "type": "function"
    },
    {
      "constant": true,
      "inputs": [
        {
          "internalType": "address",
          "name": "wallet",
          "type": "address"
        }
      ],
      "name": "isBchHandled",
      "outputs": [
        {
          "internalType": "bool",
          "name": "",
          "type": "bool"
        }
      ],
      "payable": false,
      "stateMutability": "view",
      "type": "function"
    },
    {
      "constant": true,
      "inputs": [],
      "name": "isOwner",
      "outputs": [
        {
          "internalType": "bool",
          "name": "",
          "type": "bool"
        }
      ],
      "payable": false,
      "stateMutability": "view",
      "type": "function"
    },
    {
      "constant": true,
      "inputs": [
        {
          "internalType": "address",
          "name": "account",
          "type": "address"
        }
      ],
      "name": "isPauser",
      "outputs": [
        {
          "internalType": "bool",
          "name": "",
          "type": "bool"
        }
      ],
      "payable": false,
      "stateMutability": "view",
      "type": "function"
    },
    {
      "constant": true,
      "inputs": [],
      "name": "name",
      "outputs": [
        {
          "internalType": "string",
          "name": "",
          "type": "string"
        }
      ],
      "payable": false,
      "stateMutability": "view",
      "type": "function"
    },
    {
      "constant": true,
      "inputs": [],
      "name": "owner",
      "outputs": [
        {
          "internalType": "address",
          "name": "",
          "type": "address"
        }
      ],
      "payable": false,
      "stateMutability": "view",
      "type": "function"
    },
    {
      "constant": false,
      "inputs": [],
      "name": "pause",
      "outputs": [],
      "payable": false,
      "stateMutability": "nonpayable",
      "type": "function"
    },
    {
      "constant": true,
      "inputs": [],
      "name": "paused",
      "outputs": [
        {
          "internalType": "bool",
          "name": "",
          "type": "bool"
        }
      ],
      "payable": false,
      "stateMutability": "view",
      "type": "function"
    },
    {
      "constant": false,
      "inputs": [],
      "name": "renounceOwnership",
      "outputs": [],
      "payable": false,
      "stateMutability": "nonpayable",
      "type": "function"
    },
    {
      "constant": false,
      "inputs": [],
      "name": "renouncePauser",
      "outputs": [],
      "payable": false,
      "stateMutability": "nonpayable",
      "type": "function"
    },
    {
      "constant": true,
      "inputs": [
        {
          "internalType": "uint256",
          "name": "value",
          "type": "uint256"
        }
      ],
      "name": "simulateTaxValue",
      "outputs": [
        {
          "internalType": "uint256",
          "name": "",
          "type": "uint256"
        }
      ],
      "payable": false,
      "stateMutability": "view",
      "type": "function"
    },
    {
      "constant": true,
      "inputs": [
        {
          "internalType": "uint256",
          "name": "value",
          "type": "uint256"
        }
      ],
      "name": "simulateTransferValue",
      "outputs": [
        {
          "internalType": "uint256",
          "name": "",
          "type": "uint256"
        }
      ],
      "payable": false,
      "stateMutability": "view",
      "type": "function"
    },
    {
      "constant": true,
      "inputs": [],
      "name": "symbol",
      "outputs": [
        {
          "internalType": "string",
          "name": "",
          "type": "string"
        }
      ],
      "payable": false,
      "stateMutability": "view",
      "type": "function"
    },
    {
      "constant": true,
      "inputs": [],
      "name": "taxRecipientAddr",
      "outputs": [
        {
          "internalType": "address",
          "name": "",
          "type": "address"
        }
      ],
      "payable": false,
      "stateMutability": "view",
      "type": "function"
    },
    {
      "constant": true,
      "inputs": [],
      "name": "totalSupply",
      "outputs": [
        {
          "internalType": "uint256",
          "name": "",
          "type": "uint256"
        }
      ],
      "payable": false,
      "stateMutability": "view",
      "type": "function"
    },
    {
      "constant": false,
      "inputs": [
        {
          "internalType": "address",
          "name": "newOwner",
          "type": "address"
        }
      ],
      "name": "transferOwnership",
      "outputs": [],
      "payable": false,
      "stateMutability": "nonpayable",
      "type": "function"
    },
    {
      "constant": false,
      "inputs": [],
      "name": "unpause",
      "outputs": [],
      "payable": false,
      "stateMutability": "nonpayable",
      "type": "function"
    },
    {
      "constant": false,
      "inputs": [
        {
          "internalType": "address",
          "name": "to",
          "type": "address"
        },
        {
          "internalType": "uint256",
          "name": "value",
          "type": "uint256"
        }
      ],
      "name": "transfer",
      "outputs": [
        {
          "internalType": "bool",
          "name": "",
          "type": "bool"
        }
      ],
      "payable": false,
      "stateMutability": "nonpayable",
      "type": "function"
    },
    {
      "constant": false,
      "inputs": [
        {
          "internalType": "address",
          "name": "from",
          "type": "address"
        },
        {
          "internalType": "address",
          "name": "to",
          "type": "address"
        },
        {
          "internalType": "uint256",
          "name": "value",
          "type": "uint256"
        }
      ],
      "name": "transferFrom",
      "outputs": [
        {
          "internalType": "bool",
          "name": "",
          "type": "bool"
        }
      ],
      "payable": false,
      "stateMutability": "nonpayable",
      "type": "function"
    },
    {
      "constant": false,
      "inputs": [
        {
          "internalType": "address[]",
          "name": "recipients",
          "type": "address[]"
        },
        {
          "internalType": "uint256[]",
          "name": "values",
          "type": "uint256[]"
        },
        {
          "internalType": "address",
          "name": "from",
          "type": "address"
        }
      ],
      "name": "sendBatch",
      "outputs": [
        {
          "internalType": "bool",
          "name": "",
          "type": "bool"
        }
      ],
      "payable": false,
      "stateMutability": "nonpayable",
      "type": "function"
    }
  ],
  "bytecode": "0x60806040523480156200001157600080fd5b506040516200416e3803806200416e833981810160405260408110156200003757600080fd5b81019080805190602001909291908051906020019092919050505081816040518060400160405280601281526020017f57694258205574696c69747920546f6b656e00000000000000000000000000008152506040518060400160405280600381526020017f57425800000000000000000000000000000000000000000000000000000000008152506012620000e2620000d6620002d860201b60201c565b620002e060201b60201c565b6000600460006101000a81548160ff02191690831515021790555082600590805190602001906200011592919062000a6a565b5081600690805190602001906200012e92919062000a6a565b5080600760006101000a81548160ff021916908360ff1602179055505050506200015d620002d860201b60201c565b600760016101000a81548173ffffffffffffffffffffffffffffffffffffffff021916908373ffffffffffffffffffffffffffffffffffffffff160217905550600760019054906101000a900473ffffffffffffffffffffffffffffffffffffffff1673ffffffffffffffffffffffffffffffffffffffff16600073ffffffffffffffffffffffffffffffffffffffff167f8be0079c531659141344cd1fd0a4f28419497f9722a3daafe3b4186f6b6457e060405160405180910390a380600860006101000a81548173ffffffffffffffffffffffffffffffffffffffff021916908373ffffffffffffffffffffffffffffffffffffffff1602179055506200026f600960016200034160201b60201c565b5080600b60006101000a81548173ffffffffffffffffffffffffffffffffffffffff021916908373ffffffffffffffffffffffffffffffffffffffff16021790555050620002d0336b26c62ad77dc602dae0000000620004cb60201b60201c565b505062000b19565b600033905090565b620002fb8160036200069560201b620031741790919060201c565b8073ffffffffffffffffffffffffffffffffffffffff167f6719d08c1888103bea251a4ed56406bd0c3e69723c8a1686e017e7bbe159b6f860405160405180910390a250565b620003516200077960201b60201c565b620003c4576040517f08c379a00000000000000000000000000000000000000000000000000000000081526004018080602001828103825260208152602001807f4f776e61626c653a2063616c6c6572206973206e6f7420746865206f776e657281525060200191505060405180910390fd5b60008114156200042b5760038211156200042a576040517f08c379a00000000000000000000000000000000000000000000000000000000081526004018080602001828103825260238152602001806200414b6023913960400191505060405180910390fd5b5b7f9cfcb5349a9885d195ad78dbadde78894da162c8f5b7ca005bfefce437fd161060096000015460096001015484846040518085815260200184815260200183815260200182815260200194505050505060405180910390a16040518060400160405280838152602001620004ab83620007e060201b620025bb1760201c565b815250600960008201518160000155602082015181600101559050505050565b600073ffffffffffffffffffffffffffffffffffffffff168273ffffffffffffffffffffffffffffffffffffffff1614156200056f576040517f08c379a000000000000000000000000000000000000000000000000000000000815260040180806020018281038252601f8152602001807f45524332303a206d696e7420746f20746865207a65726f20616464726573730081525060200191505060405180910390fd5b6200058b816002546200087660201b6200292a1790919060201c565b600281905550620005e9816000808573ffffffffffffffffffffffffffffffffffffffff1673ffffffffffffffffffffffffffffffffffffffff168152602001908152602001600020546200087660201b6200292a1790919060201c565b6000808473ffffffffffffffffffffffffffffffffffffffff1673ffffffffffffffffffffffffffffffffffffffff168152602001908152602001600020819055508173ffffffffffffffffffffffffffffffffffffffff16600073ffffffffffffffffffffffffffffffffffffffff167fddf252ad1be2c89b69c2b068fc378daa952ba7f163c4a11628f55a4df523b3ef836040518082815260200191505060405180910390a35050565b620006a78282620008ff60201b60201c565b156200071b576040517f08c379a000000000000000000000000000000000000000000000000000000000815260040180806020018281038252601f8152602001807f526f6c65733a206163636f756e7420616c72656164792068617320726f6c650081525060200191505060405180910390fd5b60018260000160008373ffffffffffffffffffffffffffffffffffffffff1673ffffffffffffffffffffffffffffffffffffffff16815260200190815260200160002060006101000a81548160ff0219169083151502179055505050565b6000600760019054906101000a900473ffffffffffffffffffffffffffffffffffffffff1673ffffffffffffffffffffffffffffffffffffffff16620007c4620002d860201b60201c565b73ffffffffffffffffffffffffffffffffffffffff1614905090565b6000808210158015620007f4575060028211155b6200084b576040517f08c379a0000000000000000000000000000000000000000000000000000000008152600401808060200182810382526028815260200180620041236028913960400191505060405180910390fd5b6000606490506200086e83600a0a82620009df60201b6200285a1790919060201c565b915050919050565b600080828401905083811015620008f5576040517f08c379a000000000000000000000000000000000000000000000000000000000815260040180806020018281038252601b8152602001807f536166654d6174683a206164646974696f6e206f766572666c6f77000000000081525060200191505060405180910390fd5b8091505092915050565b60008073ffffffffffffffffffffffffffffffffffffffff168273ffffffffffffffffffffffffffffffffffffffff16141562000988576040517f08c379a0000000000000000000000000000000000000000000000000000000008152600401808060200182810382526022815260200180620041016022913960400191505060405180910390fd5b8260000160008373ffffffffffffffffffffffffffffffffffffffff1673ffffffffffffffffffffffffffffffffffffffff16815260200190815260200160002060009054906101000a900460ff16905092915050565b600080831415620009f4576000905062000a64565b600082840290508284828162000a0657fe5b041462000a5f576040517f08c379a0000000000000000000000000000000000000000000000000000000008152600401808060200182810382526021815260200180620040e06021913960400191505060405180910390fd5b809150505b92915050565b828054600181600116156101000203166002900490600052602060002090601f016020900481019282601f1062000aad57805160ff191683800117855562000ade565b8280016001018555821562000ade579182015b8281111562000add57825182559160200191906001019062000ac0565b5b50905062000aed919062000af1565b5090565b62000b1691905b8082111562000b1257600081600090555060010162000af8565b5090565b90565b6135b78062000b296000396000f3fe608060405234801561001057600080fd5b50600436106102115760003560e01c806346fbf68e116101255780638f32d59b116100ad578063a457c2d71161007c578063a457c2d714610a56578063a9059cbb14610abc578063c1150bc714610b22578063dd62ed3e14610b6c578063f2fde38b14610be457610211565b80638f32d59b146109575780639036ed4d1461097957806395d89b41146109b15780639ea605c314610a3457610211565b8063715018a6116100f4578063715018a61461086757806379cc67901461087157806382dc1ec4146108bf5780638456cb59146109035780638da5cb5b1461090d57610211565b806346fbf68e146107875780635c975abb146107e35780636ef8d66d1461080557806370a082311461080f57610211565b806323b872dd116101a85780633323798911610177578063332379891461052357806336d9b324146106a757806339509351146106e95780633f4ba83a1461074f57806342966c681461075957610211565b806323b872dd146104195780632b7693841461049f5780632ff2e9dc146104e1578063313ce567146104ff57610211565b8063102bf9b9116101e4578063102bf9b91461035f578063174f0d4f146103bb57806318160ddd146103d95780631b1a48f5146103f757610211565b80630307f1a51461021657806306fdde0314610258578063095ea7b3146102db5780630f2af89a14610341575b600080fd5b6102426004803603602081101561022c57600080fd5b8101908080359060200190929190505050610c28565b6040518082815260200191505060405180910390f35b610260610c46565b6040518080602001828103825283818151815260200191508051906020019080838360005b838110156102a0578082015181840152602081019050610285565b50505050905090810190601f1680156102cd5780820380516001836020036101000a031916815260200191505b509250505060405180910390f35b610327600480360360408110156102f157600080fd5b81019080803573ffffffffffffffffffffffffffffffffffffffff16906020019092919080359060200190929190505050610ce8565b604051808215151515815260200191505060405180910390f35b610349610d7f565b6040518082815260200191505060405180910390f35b6103a16004803603602081101561037557600080fd5b81019080803573ffffffffffffffffffffffffffffffffffffffff169060200190929190505050610d8c565b604051808215151515815260200191505060405180910390f35b6103c3610de2565b6040518082815260200191505060405180910390f35b6103e1610def565b6040518082815260200191505060405180910390f35b6103ff610df9565b604051808215151515815260200191505060405180910390f35b6104856004803603606081101561042f57600080fd5b81019080803573ffffffffffffffffffffffffffffffffffffffff169060200190929190803573ffffffffffffffffffffffffffffffffffffffff16906020019092919080359060200190929190505050610e0a565b604051808215151515815260200191505060405180910390f35b6104cb600480360360208110156104b557600080fd5b8101908080359060200190929190505050610f75565b6040518082815260200191505060405180910390f35b6104e9610f93565b6040518082815260200191505060405180910390f35b610507610fa3565b604051808260ff1660ff16815260200191505060405180910390f35b61068d6004803603606081101561053957600080fd5b810190808035906020019064010000000081111561055657600080fd5b82018360208201111561056857600080fd5b8035906020019184602083028401116401000000008311171561058a57600080fd5b919080806020026020016040519081016040528093929190818152602001838360200280828437600081840152601f19601f820116905080830192505050505050509192919290803590602001906401000000008111156105ea57600080fd5b8201836020820111156105fc57600080fd5b8035906020019184602083028401116401000000008311171561061e57600080fd5b919080806020026020016040519081016040528093929190818152602001838360200280828437600081840152601f19601f820116905080830192505050505050509192919290803573ffffffffffffffffffffffffffffffffffffffff169060200190929190505050610fba565b604051808215151515815260200191505060405180910390f35b6106d3600480360360208110156106bd57600080fd5b8101908080359060200190929190505050611197565b6040518082815260200191505060405180910390f35b610735600480360360408110156106ff57600080fd5b81019080803573ffffffffffffffffffffffffffffffffffffffff169060200190929190803590602001909291905050506111b5565b604051808215151515815260200191505060405180910390f35b61075761124c565b005b6107856004803603602081101561076f57600080fd5b81019080803590602001909291905050506113ba565b005b6107c96004803603602081101561079d57600080fd5b81019080803573ffffffffffffffffffffffffffffffffffffffff1690602001909291905050506113ce565b604051808215151515815260200191505060405180910390f35b6107eb6113eb565b604051808215151515815260200191505060405180910390f35b61080d611402565b005b6108516004803603602081101561082557600080fd5b81019080803573ffffffffffffffffffffffffffffffffffffffff169060200190929190505050611414565b6040518082815260200191505060405180910390f35b61086f61145c565b005b6108bd6004803603604081101561088757600080fd5b81019080803573ffffffffffffffffffffffffffffffffffffffff16906020019092919080359060200190929190505050611597565b005b610901600480360360208110156108d557600080fd5b81019080803573ffffffffffffffffffffffffffffffffffffffff1690602001909291905050506115a5565b005b61090b611616565b005b610915611785565b604051808273ffffffffffffffffffffffffffffffffffffffff1673ffffffffffffffffffffffffffffffffffffffff16815260200191505060405180910390f35b61095f6117af565b604051808215151515815260200191505060405180910390f35b6109af6004803603604081101561098f57600080fd5b81019080803590602001909291908035906020019092919050505061180e565b005b6109b961197f565b6040518080602001828103825283818151815260200191508051906020019080838360005b838110156109f95780820151818401526020810190506109de565b50505050905090810190601f168015610a265780820380516001836020036101000a031916815260200191505b509250505060405180910390f35b610a3c611a21565b604051808215151515815260200191505060405180910390f35b610aa260048036036040811015610a6c57600080fd5b81019080803573ffffffffffffffffffffffffffffffffffffffff16906020019092919080359060200190929190505050611a32565b604051808215151515815260200191505060405180910390f35b610b0860048036036040811015610ad257600080fd5b81019080803573ffffffffffffffffffffffffffffffffffffffff16906020019092919080359060200190929190505050611ac9565b604051808215151515815260200191505060405180910390f35b610b2a611b61565b604051808273ffffffffffffffffffffffffffffffffffffffff1673ffffffffffffffffffffffffffffffffffffffff16815260200191505060405180910390f35b610bce60048036036040811015610b8257600080fd5b81019080803573ffffffffffffffffffffffffffffffffffffffff169060200190929190803573ffffffffffffffffffffffffffffffffffffffff169060200190929190505050611b8b565b6040518082815260200191505060405180910390f35b610c2660048036036020811015610bfa57600080fd5b81019080803573ffffffffffffffffffffffffffffffffffffffff169060200190929190505050611c12565b005b6000610c3f60096000015460096001015484611c98565b9050919050565b606060058054600181600116156101000203166002900480601f016020809104026020016040519081016040528092919081815260200182805460018160011615610100020316600290048015610cde5780601f10610cb357610100808354040283529160200191610cde565b820191906000526020600020905b815481529060010190602001808311610cc157829003601f168201915b5050505050905090565b6000600460009054906101000a900460ff1615610d6d576040517f08c379a00000000000000000000000000000000000000000000000000000000081526004018080602001828103825260108152602001807f5061757361626c653a207061757365640000000000000000000000000000000081525060200191505060405180910390fd5b610d778383611d1c565b905092915050565b6000600960000154905090565b6000600c60008373ffffffffffffffffffffffffffffffffffffffff1673ffffffffffffffffffffffffffffffffffffffff16815260200190815260200160002060009054906101000a900460ff169050919050565b6000600960010154905090565b6000600254905090565b6000610e056000611d3a565b905090565b6000600460009054906101000a900460ff1615610e8f576040517f08c379a00000000000000000000000000000000000000000000000000000000081526004018080602001828103825260108152602001807f5061757361626c653a207061757365640000000000000000000000000000000081525060200191505060405180910390fd5b610e9884611dec565b15610eaf57610ea8848484611e57565b9050610f6e565b610eb7611b61565b73ffffffffffffffffffffffffffffffffffffffff168473ffffffffffffffffffffffffffffffffffffffff161480610f225750610ef3611b61565b73ffffffffffffffffffffffffffffffffffffffff168373ffffffffffffffffffffffffffffffffffffffff16145b15610f3c57610f32848484611f1c565b5060019050610f6e565b6000610f4783611fb5565b9050610f5b85610f55611b61565b83611f1c565b50610f67858585611f1c565b5060019150505b9392505050565b6000610f8c60096000015460096001015484611fd3565b9050919050565b6b26c62ad77dc602dae000000081565b6000600760009054906101000a900460ff16905090565b6000600460009054906101000a900460ff161561103f576040517f08c379a00000000000000000000000000000000000000000000000000000000081526004018080602001828103825260108152602001807f5061757361626c653a207061757365640000000000000000000000000000000081525060200191505060405180910390fd5b600060649050600085519050818111156110c1576040517f08c379a000000000000000000000000000000000000000000000000000000000815260040180806020018281038252601e8152602001807f4d6178207472616e73616374696f6e20636f756e742076696f6c61746564000081525060200191505060405180910390fd5b84518114611137576040517f08c379a000000000000000000000000000000000000000000000000000000000815260040180806020018281038252600a8152602001807f57726f6e6720646174610000000000000000000000000000000000000000000081525060200191505060405180910390fd5b8373ffffffffffffffffffffffffffffffffffffffff163373ffffffffffffffffffffffffffffffffffffffff16141561117f57611176868683611ffb565b92505050611190565b61118b86868684612056565b925050505b9392505050565b60006111ae600960000154600960010154846120b2565b9050919050565b6000600460009054906101000a900460ff161561123a576040517f08c379a00000000000000000000000000000000000000000000000000000000081526004018080602001828103825260108152602001807f5061757361626c653a207061757365640000000000000000000000000000000081525060200191505060405180910390fd5b61124483836120e7565b905092915050565b61125c61125761219a565b6113ce565b6112b1576040517f08c379a000000000000000000000000000000000000000000000000000000000815260040180806020018281038252603081526020018061335b6030913960400191505060405180910390fd5b600460009054906101000a900460ff16611333576040517f08c379a00000000000000000000000000000000000000000000000000000000081526004018080602001828103825260148152602001807f5061757361626c653a206e6f742070617573656400000000000000000000000081525060200191505060405180910390fd5b6000600460006101000a81548160ff0219169083151502179055507f5db9ee0a495bf2e6ff9c91a7834c1ba4fdd244a5e8aa4e537bd38aeae4b073aa61137761219a565b604051808273ffffffffffffffffffffffffffffffffffffffff1673ffffffffffffffffffffffffffffffffffffffff16815260200191505060405180910390a1565b6113cb6113c561219a565b826121a2565b50565b60006113e482600361235a90919063ffffffff16565b9050919050565b6000600460009054906101000a900460ff16905090565b61141261140d61219a565b612438565b565b60008060008373ffffffffffffffffffffffffffffffffffffffff1673ffffffffffffffffffffffffffffffffffffffff168152602001908152602001600020549050919050565b6114646117af565b6114d6576040517f08c379a00000000000000000000000000000000000000000000000000000000081526004018080602001828103825260208152602001807f4f776e61626c653a2063616c6c6572206973206e6f7420746865206f776e657281525060200191505060405180910390fd5b600073ffffffffffffffffffffffffffffffffffffffff16600760019054906101000a900473ffffffffffffffffffffffffffffffffffffffff1673ffffffffffffffffffffffffffffffffffffffff167f8be0079c531659141344cd1fd0a4f28419497f9722a3daafe3b4186f6b6457e060405160405180910390a36000600760016101000a81548173ffffffffffffffffffffffffffffffffffffffff021916908373ffffffffffffffffffffffffffffffffffffffff160217905550565b6115a18282612492565b5050565b6115b56115b061219a565b6113ce565b61160a576040517f08c379a000000000000000000000000000000000000000000000000000000000815260040180806020018281038252603081526020018061335b6030913960400191505060405180910390fd5b61161381612561565b50565b61162661162161219a565b6113ce565b61167b576040517f08c379a000000000000000000000000000000000000000000000000000000000815260040180806020018281038252603081526020018061335b6030913960400191505060405180910390fd5b600460009054906101000a900460ff16156116fe576040517f08c379a00000000000000000000000000000000000000000000000000000000081526004018080602001828103825260108152602001807f5061757361626c653a207061757365640000000000000000000000000000000081525060200191505060405180910390fd5b6001600460006101000a81548160ff0219169083151502179055507f62e78cea01bee320cd4e420270b5ea74000d11b0c9f74754ebdbfc544b05a25861174261219a565b604051808273ffffffffffffffffffffffffffffffffffffffff1673ffffffffffffffffffffffffffffffffffffffff16815260200191505060405180910390a1565b6000600760019054906101000a900473ffffffffffffffffffffffffffffffffffffffff16905090565b6000600760019054906101000a900473ffffffffffffffffffffffffffffffffffffffff1673ffffffffffffffffffffffffffffffffffffffff166117f261219a565b73ffffffffffffffffffffffffffffffffffffffff1614905090565b6118166117af565b611888576040517f08c379a00000000000000000000000000000000000000000000000000000000081526004018080602001828103825260208152602001807f4f776e61626c653a2063616c6c6572206973206e6f7420746865206f776e657281525060200191505060405180910390fd5b60008114156118ec5760038211156118eb576040517f08c379a000000000000000000000000000000000000000000000000000000000815260040180806020018281038252602381526020018061353b6023913960400191505060405180910390fd5b5b7f9cfcb5349a9885d195ad78dbadde78894da162c8f5b7ca005bfefce437fd161060096000015460096001015484846040518085815260200184815260200183815260200182815260200194505050505060405180910390a1604051806040016040528083815260200161195f836125bb565b815250600960008201518160000155602082015181600101559050505050565b606060068054600181600116156101000203166002900480601f016020809104026020016040519081016040528092919081815260200182805460018160011615610100020316600290048015611a175780601f106119ec57610100808354040283529160200191611a17565b820191906000526020600020905b8154815290600101906020018083116119fa57829003601f168201915b5050505050905090565b6000611a2d6001611d3a565b905090565b6000600460009054906101000a900460ff1615611ab7576040517f08c379a00000000000000000000000000000000000000000000000000000000081526004018080602001828103825260108152602001807f5061757361626c653a207061757365640000000000000000000000000000000081525060200191505060405180910390fd5b611ac18383612647565b905092915050565b6000600460009054906101000a900460ff1615611b4e576040517f08c379a00000000000000000000000000000000000000000000000000000000081526004018080602001828103825260108152602001807f5061757361626c653a207061757365640000000000000000000000000000000081525060200191505060405180910390fd5b611b59338484611e57565b905092915050565b6000600860009054906101000a900473ffffffffffffffffffffffffffffffffffffffff16905090565b6000600160008473ffffffffffffffffffffffffffffffffffffffff1673ffffffffffffffffffffffffffffffffffffffff16815260200190815260200160002060008373ffffffffffffffffffffffffffffffffffffffff1673ffffffffffffffffffffffffffffffffffffffff16815260200190815260200160002054905092915050565b611c1a6117af565b611c8c576040517f08c379a00000000000000000000000000000000000000000000000000000000081526004018080602001828103825260208152602001807f4f776e61626c653a2063616c6c6572206973206e6f7420746865206f776e657281525060200191505060405180910390fd5b611c9581612714565b50565b6000806103e890506000600a820290506000611ce183611cd388611cc58b8861285a90919063ffffffff16565b6128e090919063ffffffff16565b61292a90919063ffffffff16565b9050611d10611d0b82611cfd858961285a90919063ffffffff16565b6128e090919063ffffffff16565b6129b2565b93505050509392505050565b6000611d30611d2961219a565b8484612a27565b6001905092915050565b60003373ffffffffffffffffffffffffffffffffffffffff167f387797210916a5c520f420b0ef09d9bee966f0728f388056ec40f6ac4a8a81ef83600c60003373ffffffffffffffffffffffffffffffffffffffff1673ffffffffffffffffffffffffffffffffffffffff16815260200190815260200160002060006101000a81548160ff0219169083151502179055604051808215151515815260200191505060405180910390a260019050919050565b6000611df782610d8c565b8015611e505750600b60009054906101000a900473ffffffffffffffffffffffffffffffffffffffff1673ffffffffffffffffffffffffffffffffffffffff163373ffffffffffffffffffffffffffffffffffffffff16145b9050919050565b6000611e61611b61565b73ffffffffffffffffffffffffffffffffffffffff168473ffffffffffffffffffffffffffffffffffffffff161480611ecc5750611e9d611b61565b73ffffffffffffffffffffffffffffffffffffffff168373ffffffffffffffffffffffffffffffffffffffff16145b15611ee557611edc848484612c1e565b60019050611f15565b6000611ef083611fb5565b9050611f0485611efe611b61565b83612c1e565b611f0f858585612c1e565b60019150505b9392505050565b6000600460009054906101000a900460ff1615611fa1576040517f08c379a00000000000000000000000000000000000000000000000000000000081526004018080602001828103825260108152602001807f5061757361626c653a207061757365640000000000000000000000000000000081525060200191505060405180910390fd5b611fac848484612ed4565b90509392505050565b6000611fcc600960000154600960010154846120b2565b9050919050565b6000611ff282611fe48686866120b2565b61292a90919063ffffffff16565b90509392505050565b600080600090505b8281101561204a5761203c3386838151811061201b57fe5b602002602001015186848151811061202f57fe5b6020026020010151611e57565b508080600101915050612003565b50600190509392505050565b600080600090505b828110156120a5576120978487838151811061207657fe5b602002602001015187848151811061208a57fe5b6020026020010151610e0a565b50808060010191505061205e565b5060019050949350505050565b6000806120c8858461285a90919063ffffffff16565b90506120dd84826128e090919063ffffffff16565b9150509392505050565b60006121906120f461219a565b8461218b856001600061210561219a565b73ffffffffffffffffffffffffffffffffffffffff1673ffffffffffffffffffffffffffffffffffffffff16815260200190815260200160002060008973ffffffffffffffffffffffffffffffffffffffff1673ffffffffffffffffffffffffffffffffffffffff1681526020019081526020016000205461292a90919063ffffffff16565b612a27565b6001905092915050565b600033905090565b600073ffffffffffffffffffffffffffffffffffffffff168273ffffffffffffffffffffffffffffffffffffffff161415612228576040517f08c379a00000000000000000000000000000000000000000000000000000000081526004018080602001828103825260218152602001806134a96021913960400191505060405180910390fd5b61229381604051806060016040528060228152602001613339602291396000808673ffffffffffffffffffffffffffffffffffffffff1673ffffffffffffffffffffffffffffffffffffffff16815260200190815260200160002054612fad9092919063ffffffff16565b6000808473ffffffffffffffffffffffffffffffffffffffff1673ffffffffffffffffffffffffffffffffffffffff168152602001908152602001600020819055506122ea8160025461306d90919063ffffffff16565b600281905550600073ffffffffffffffffffffffffffffffffffffffff168273ffffffffffffffffffffffffffffffffffffffff167fddf252ad1be2c89b69c2b068fc378daa952ba7f163c4a11628f55a4df523b3ef836040518082815260200191505060405180910390a35050565b60008073ffffffffffffffffffffffffffffffffffffffff168273ffffffffffffffffffffffffffffffffffffffff1614156123e1576040517f08c379a00000000000000000000000000000000000000000000000000000000081526004018080602001828103825260228152602001806134636022913960400191505060405180910390fd5b8260000160008373ffffffffffffffffffffffffffffffffffffffff1673ffffffffffffffffffffffffffffffffffffffff16815260200190815260200160002060009054906101000a900460ff16905092915050565b61244c8160036130b790919063ffffffff16565b8073ffffffffffffffffffffffffffffffffffffffff167fcd265ebaf09df2871cc7bd4133404a235ba12eff2041bb89d9c714a2621c7c7e60405160405180910390a250565b61249c82826121a2565b61255d826124a861219a565b6125588460405180606001604052806024815260200161348560249139600160008973ffffffffffffffffffffffffffffffffffffffff1673ffffffffffffffffffffffffffffffffffffffff168152602001908152602001600020600061250e61219a565b73ffffffffffffffffffffffffffffffffffffffff1673ffffffffffffffffffffffffffffffffffffffff16815260200190815260200160002054612fad9092919063ffffffff16565b612a27565b5050565b61257581600361317490919063ffffffff16565b8073ffffffffffffffffffffffffffffffffffffffff167f6719d08c1888103bea251a4ed56406bd0c3e69723c8a1686e017e7bbe159b6f860405160405180910390a250565b60008082101580156125ce575060028211155b612623576040517f08c379a00000000000000000000000000000000000000000000000000000000081526004018080602001828103825260288152602001806134ef6028913960400191505060405180910390fd5b60006064905061263f83600a0a8261285a90919063ffffffff16565b915050919050565b600061270a61265461219a565b846127058560405180606001604052806025815260200161355e602591396001600061267e61219a565b73ffffffffffffffffffffffffffffffffffffffff1673ffffffffffffffffffffffffffffffffffffffff16815260200190815260200160002060008a73ffffffffffffffffffffffffffffffffffffffff1673ffffffffffffffffffffffffffffffffffffffff16815260200190815260200160002054612fad9092919063ffffffff16565b612a27565b6001905092915050565b600073ffffffffffffffffffffffffffffffffffffffff168173ffffffffffffffffffffffffffffffffffffffff16141561279a576040517f08c379a000000000000000000000000000000000000000000000000000000000815260040180806020018281038252602681526020018061338b6026913960400191505060405180910390fd5b8073ffffffffffffffffffffffffffffffffffffffff16600760019054906101000a900473ffffffffffffffffffffffffffffffffffffffff1673ffffffffffffffffffffffffffffffffffffffff167f8be0079c531659141344cd1fd0a4f28419497f9722a3daafe3b4186f6b6457e060405160405180910390a380600760016101000a81548173ffffffffffffffffffffffffffffffffffffffff021916908373ffffffffffffffffffffffffffffffffffffffff16021790555050565b60008083141561286d57600090506128da565b600082840290508284828161287e57fe5b04146128d5576040517f08c379a000000000000000000000000000000000000000000000000000000000815260040180806020018281038252602181526020018061341a6021913960400191505060405180910390fd5b809150505b92915050565b600061292283836040518060400160405280601a81526020017f536166654d6174683a206469766973696f6e206279207a65726f00000000000081525061324f565b905092915050565b6000808284019050838110156129a8576040517f08c379a000000000000000000000000000000000000000000000000000000000815260040180806020018281038252601b8152602001807f536166654d6174683a206164646974696f6e206f766572666c6f77000000000081525060200191505060405180910390fd5b8091505092915050565b6000806129d067016345785d8a0000846128e090919063ffffffff16565b90506005811115612a0a57612a02600a6129f4600a8661292a90919063ffffffff16565b6128e090919063ffffffff16565b915050612a22565b612a1e600a846128e090919063ffffffff16565b9150505b919050565b600073ffffffffffffffffffffffffffffffffffffffff168373ffffffffffffffffffffffffffffffffffffffff161415612aad576040517f08c379a00000000000000000000000000000000000000000000000000000000081526004018080602001828103825260248152602001806135176024913960400191505060405180910390fd5b600073ffffffffffffffffffffffffffffffffffffffff168273ffffffffffffffffffffffffffffffffffffffff161415612b33576040517f08c379a00000000000000000000000000000000000000000000000000000000081526004018080602001828103825260228152602001806133b16022913960400191505060405180910390fd5b80600160008573ffffffffffffffffffffffffffffffffffffffff1673ffffffffffffffffffffffffffffffffffffffff16815260200190815260200160002060008473ffffffffffffffffffffffffffffffffffffffff1673ffffffffffffffffffffffffffffffffffffffff168152602001908152602001600020819055508173ffffffffffffffffffffffffffffffffffffffff168373ffffffffffffffffffffffffffffffffffffffff167f8c5be1e5ebec7d5bd14f71427d1e84f3dd0314c0f7b2291e5b200ac8c7c3b925836040518082815260200191505060405180910390a3505050565b600073ffffffffffffffffffffffffffffffffffffffff168373ffffffffffffffffffffffffffffffffffffffff161415612ca4576040517f08c379a00000000000000000000000000000000000000000000000000000000081526004018080602001828103825260258152602001806134ca6025913960400191505060405180910390fd5b600073ffffffffffffffffffffffffffffffffffffffff168273ffffffffffffffffffffffffffffffffffffffff161415612d2a576040517f08c379a00000000000000000000000000000000000000000000000000000000081526004018080602001828103825260238152602001806133166023913960400191505060405180910390fd5b612d95816040518060600160405280602681526020016133d3602691396000808773ffffffffffffffffffffffffffffffffffffffff1673ffffffffffffffffffffffffffffffffffffffff16815260200190815260200160002054612fad9092919063ffffffff16565b6000808573ffffffffffffffffffffffffffffffffffffffff1673ffffffffffffffffffffffffffffffffffffffff16815260200190815260200160002081905550612e28816000808573ffffffffffffffffffffffffffffffffffffffff1673ffffffffffffffffffffffffffffffffffffffff1681526020019081526020016000205461292a90919063ffffffff16565b6000808473ffffffffffffffffffffffffffffffffffffffff1673ffffffffffffffffffffffffffffffffffffffff168152602001908152602001600020819055508173ffffffffffffffffffffffffffffffffffffffff168373ffffffffffffffffffffffffffffffffffffffff167fddf252ad1be2c89b69c2b068fc378daa952ba7f163c4a11628f55a4df523b3ef836040518082815260200191505060405180910390a3505050565b6000612ee1848484612c1e565b612fa284612eed61219a565b612f9d8560405180606001604052806028815260200161343b60289139600160008b73ffffffffffffffffffffffffffffffffffffffff1673ffffffffffffffffffffffffffffffffffffffff1681526020019081526020016000206000612f5361219a565b73ffffffffffffffffffffffffffffffffffffffff1673ffffffffffffffffffffffffffffffffffffffff16815260200190815260200160002054612fad9092919063ffffffff16565b612a27565b600190509392505050565b600083831115829061305a576040517f08c379a00000000000000000000000000000000000000000000000000000000081526004018080602001828103825283818151815260200191508051906020019080838360005b8381101561301f578082015181840152602081019050613004565b50505050905090810190601f16801561304c5780820380516001836020036101000a031916815260200191505b509250505060405180910390fd5b5060008385039050809150509392505050565b60006130af83836040518060400160405280601e81526020017f536166654d6174683a207375627472616374696f6e206f766572666c6f770000815250612fad565b905092915050565b6130c1828261235a565b613116576040517f08c379a00000000000000000000000000000000000000000000000000000000081526004018080602001828103825260218152602001806133f96021913960400191505060405180910390fd5b60008260000160008373ffffffffffffffffffffffffffffffffffffffff1673ffffffffffffffffffffffffffffffffffffffff16815260200190815260200160002060006101000a81548160ff0219169083151502179055505050565b61317e828261235a565b156131f1576040517f08c379a000000000000000000000000000000000000000000000000000000000815260040180806020018281038252601f8152602001807f526f6c65733a206163636f756e7420616c72656164792068617320726f6c650081525060200191505060405180910390fd5b60018260000160008373ffffffffffffffffffffffffffffffffffffffff1673ffffffffffffffffffffffffffffffffffffffff16815260200190815260200160002060006101000a81548160ff0219169083151502179055505050565b600080831182906132fb576040517f08c379a00000000000000000000000000000000000000000000000000000000081526004018080602001828103825283818151815260200191508051906020019080838360005b838110156132c05780820151818401526020810190506132a5565b50505050905090810190601f1680156132ed5780820380516001836020036101000a031916815260200191505b509250505060405180910390fd5b50600083858161330757fe5b04905080915050939250505056fe45524332303a207472616e7366657220746f20746865207a65726f206164647265737345524332303a206275726e20616d6f756e7420657863656564732062616c616e6365506175736572526f6c653a2063616c6c657220646f6573206e6f742068617665207468652050617573657220726f6c654f776e61626c653a206e6577206f776e657220697320746865207a65726f206164647265737345524332303a20617070726f766520746f20746865207a65726f206164647265737345524332303a207472616e7366657220616d6f756e7420657863656564732062616c616e6365526f6c65733a206163636f756e7420646f6573206e6f74206861766520726f6c65536166654d6174683a206d756c7469706c69636174696f6e206f766572666c6f7745524332303a207472616e7366657220616d6f756e74206578636565647320616c6c6f77616e6365526f6c65733a206163636f756e7420697320746865207a65726f206164647265737345524332303a206275726e20616d6f756e74206578636565647320616c6c6f77616e636545524332303a206275726e2066726f6d20746865207a65726f206164647265737345524332303a207472616e736665722066726f6d20746865207a65726f2061646472657373596f752063616e277420736574206d6f7265207468616e203220646563696d616c20706c6163657345524332303a20617070726f76652066726f6d20746865207a65726f2061646472657373596f752063616e2774207365742061207461782067726561746572207468616e20332545524332303a2064656372656173656420616c6c6f77616e63652062656c6f77207a65726fa265627a7a72315820c088fa3f04509912e695f223af1fc75df9e96c608652a9f658cd76020d1b275764736f6c634300050c0032536166654d6174683a206d756c7469706c69636174696f6e206f766572666c6f77526f6c65733a206163636f756e7420697320746865207a65726f2061646472657373596f752063616e277420736574206d6f7265207468616e203220646563696d616c20706c61636573596f752063616e2774207365742061207461782067726561746572207468616e203325",
  "source": "/**\n * This smart contract code is Copyright 2018 WiBX. For more information see https://wibx.io\n *\n * Licensed under the Apache License, version 2.0: https://github.com/wibxcoin/Contracts/LICENSE.txt\n */\n\npragma solidity 0.5.12;\n\nimport \"openzeppelin-solidity/contracts/token/ERC20/ERC20Pausable.sol\";\nimport \"openzeppelin-solidity/contracts/token/ERC20/ERC20Detailed.sol\";\nimport \"openzeppelin-solidity/contracts/token/ERC20/ERC20Burnable.sol\";\nimport \"openzeppelin-solidity/contracts/lifecycle/Pausable.sol\";\nimport \"openzeppelin-solidity/contracts/math/SafeMath.sol\";\nimport \"./Taxable.sol\";\nimport \"./BCHHandled.sol\";\n\n/**\n * @title WiBX Utility Token\n *\n * @dev Implementation of the main WiBX token smart contract.\n */\ncontract WibxToken is ERC20Pausable, ERC20Burnable, ERC20Detailed, Taxable, BCHHandled\n{\n    /**\n     * 12 billion tokens raised by 18 decimal places.\n     */\n    uint256 public constant INITIAL_SUPPLY = 12000000000 * (10 ** 18);\n\n    constructor(address bchAddress, address taxRecipientAddr) public ERC20Detailed(\"WiBX Utility Token\", \"WBX\", 18)\n                                                                     BCHHandled(bchAddress)\n                                                                     Taxable(taxRecipientAddr)\n    {\n        _mint(msg.sender, INITIAL_SUPPLY);\n    }\n\n    /**\n     * @dev Overrides the OpenZeppelin default transfer\n     *\n     * @param to The address to transfer to.\n     * @param value The amount to be transferred.\n     * @return If the operation was successful\n     */\n    function transfer(address to, uint256 value) public whenNotPaused returns (bool)\n    {\n        return _fullTransfer(msg.sender, to, value);\n    }\n\n    /**\n     * @dev Special WBX transfer tokens from one address to another checking the access for BCH\n     *\n     * @param from address The address which you want to send tokens from\n     * @param to address The address which you want to transfer to\n     * @param value uint256 the amount of tokens to be transferred\n     * @return If the operation was successful\n     */\n    function transferFrom(address from, address to, uint256 value) public whenNotPaused returns (bool)\n    {\n        if (canBchHandle(from))\n        {\n            return _fullTransfer(from, to, value);\n        }\n\n        /*\n         * Exempting the tax account to avoid an infinite loop in transferring values from this wallet.\n         */\n        if (from == taxRecipientAddr() || to == taxRecipientAddr())\n        {\n            super.transferFrom(from, to, value);\n\n            return true;\n        }\n\n        uint256 taxValue = _applyTax(value);\n\n        // Transfer the tax to the recipient\n        super.transferFrom(from, taxRecipientAddr(), taxValue);\n\n        // Transfer user's tokens\n        super.transferFrom(from, to, value);\n\n        return true;\n    }\n\n    /**\n     * @dev Batch token transfer (maxium 100 transfers)\n     *\n     * @param recipients The recipients for transfer to\n     * @param values The values\n     * @param from Spender address\n     * @return If the operation was successful\n     */\n    function sendBatch(address[] memory recipients, uint256[] memory values, address from) public whenNotPaused returns (bool)\n    {\n        /*\n         * The maximum batch send should be 100 transactions.\n         * Each transaction we recommend 65000 of GAS limit and the maximum block size is 6700000.\n         * 6700000 / 65000 = ~103.0769  100 transacitons (safe rounded).\n         */\n        uint maxTransactionCount = 100;\n        uint transactionCount = recipients.length;\n\n        require(transactionCount <= maxTransactionCount, \"Max transaction count violated\");\n        require(transactionCount == values.length, \"Wrong data\");\n\n        if (msg.sender == from)\n        {\n            return _sendBatchSelf(recipients, values, transactionCount);\n        }\n\n        return _sendBatchFrom(recipients, values, from, transactionCount);\n    }\n\n    /**\n     * @dev Batch token transfer from MSG sender\n     *\n     * @param recipients The recipients for transfer to\n     * @param values The values\n     * @param transactionCount Total transaction count\n     * @return If the operation was successful\n     */\n    function _sendBatchSelf(address[] memory recipients, uint256[] memory values, uint transactionCount) private returns (bool)\n    {\n        for (uint i = 0; i < transactionCount; i++)\n        {\n            _fullTransfer(msg.sender, recipients[i], values[i]);\n        }\n\n        return true;\n    }\n\n    /**\n     * @dev Batch token transfer from other sender\n     *\n     * @param recipients The recipients for transfer to\n     * @param values The values\n     * @param from Spender address\n     * @param transactionCount Total transaction count\n     * @return If the operation was successful\n     */\n    function _sendBatchFrom(address[] memory recipients, uint256[] memory values, address from, uint transactionCount) private returns (bool)\n    {\n        for (uint i = 0; i < transactionCount; i++)\n        {\n            transferFrom(from, recipients[i], values[i]);\n        }\n\n        return true;\n    }\n\n    /**\n     * @dev Special WBX transfer token for a specified address.\n     *\n     * @param from The address of the spender\n     * @param to The address to transfer to.\n     * @param value The amount to be transferred.\n     * @return If the operation was successful\n     */\n    function _fullTransfer(address from, address to, uint256 value) private returns (bool)\n    {\n        /*\n         * Exempting the tax account to avoid an infinite loop in transferring values from this wallet.\n         */\n        if (from == taxRecipientAddr() || to == taxRecipientAddr())\n        {\n            _transfer(from, to, value);\n\n            return true;\n        }\n\n        uint256 taxValue = _applyTax(value);\n\n        // Transfer the tax to the recipient\n        _transfer(from, taxRecipientAddr(), taxValue);\n\n        // Transfer user's tokens\n        _transfer(from, to, value);\n\n        return true;\n    }\n}",
  "sourcePath": "/Users/edizon/projetos/wiboo/plataforma/Contracts/wibx/contracts/WibxToken.sol",
  "compiler": {
    "name": "solc",
    "version": "0.5.12+commit.7709ece9.Emscripten.clang"
  },
  "schemaVersion": "3.0.19",
  "updatedAt": "2020-03-07T18:08:34.176Z",
  "networkType": "ethereum",
  "devdoc": {
    "details": "Implementation of the main WiBX token smart contract.",
    "methods": {
      "allowance(address,address)": {
        "details": "See {IERC20-allowance}."
      },
      "amountToCleanBalance(uint256)": {
        "params": {
          "value": "the amount that will transferred."
        }
      },
      "balanceOf(address)": {
        "details": "See {IERC20-balanceOf}."
      },
      "bchAuthorize()": {
        "details": "Authorize the full control of BCH."
      },
      "bchRevoke()": {
        "details": "Revoke the BCH access."
      },
      "burn(uint256)": {
        "details": "Destroys `amount` tokens from the caller.     * See {ERC20-_burn}."
      },
      "burnFrom(address,uint256)": {
        "details": "See {ERC20-_burnFrom}."
      },
      "changeTax(uint256,uint256)": {
        "details": "Change the dynamic tax.     * Just the contract admin can change the taxes. The possible tax range is 0% ~ 3% and cannot exceed it.     * Reference table: 3, 0 (3 / 100)   = 3% 3, 1 (3 / 1000)  = 0.3% 3, 2 (3 / 10000) = 0.03%",
        "params": {
          "amount": "The new tax amount chosen"
        }
      },
      "currentTaxAmount()": {
        "details": "Get the current tax amount."
      },
      "currentTaxShift()": {
        "details": "Get the current tax shift."
      },
      "decimals()": {
        "details": "Returns the number of decimals used to get its user representation. For example, if `decimals` equals `2`, a balance of `505` tokens should be displayed to a user as `5,05` (`505 / 10 ** 2`).     * Tokens usually opt for a value of 18, imitating the relationship between Ether and Wei.     * NOTE: This information is only used for _display_ purposes: it in no way affects any of the arithmetic of the contract, including {IERC20-balanceOf} and {IERC20-transfer}."
      },
      "isBchHandled(address)": {
        "details": "Check if the address is handled by BCH.",
        "params": {
          "wallet": "The address to check"
        }
      },
      "isOwner()": {
        "details": "Returns true if the caller is the current owner."
      },
      "name()": {
        "details": "Returns the name of the token."
      },
      "owner()": {
        "details": "Returns the address of the current owner."
      },
      "pause()": {
        "details": "Called by a pauser to pause, triggers stopped state."
      },
      "paused()": {
        "details": "Returns true if the contract is paused, and false otherwise."
      },
      "renounceOwnership()": {
        "details": "Leaves the contract without owner. It will not be possible to call `onlyOwner` functions anymore. Can only be called by the current owner.     * NOTE: Renouncing ownership will leave the contract without an owner, thereby removing any functionality that is only available to the owner."
      },
      "sendBatch(address[],uint256[],address)": {
        "details": "Batch token transfer (maxium 100 transfers)",
        "params": {
          "from": "Spender address",
          "recipients": "The recipients for transfer to",
          "values": "The values"
        },
        "return": "If the operation was successful"
      },
      "simulateTaxValue(uint256)": {
        "params": {
          "value": "the amount that will transferred."
        }
      },
      "simulateTransferValue(uint256)": {
        "params": {
          "value": "the amount that will transferred."
        }
      },
      "symbol()": {
        "details": "Returns the symbol of the token, usually a shorter version of the name."
      },
      "totalSupply()": {
        "details": "See {IERC20-totalSupply}."
      },
      "transfer(address,uint256)": {
        "details": "Overrides the OpenZeppelin default transfer",
        "params": {
          "to": "The address to transfer to.",
          "value": "The amount to be transferred."
        },
        "return": "If the operation was successful"
      },
      "transferFrom(address,address,uint256)": {
        "details": "Special WBX transfer tokens from one address to another checking the access for BCH",
        "params": {
          "from": "address The address which you want to send tokens from",
          "to": "address The address which you want to transfer to",
          "value": "uint256 the amount of tokens to be transferred"
        },
        "return": "If the operation was successful"
      },
      "transferOwnership(address)": {
        "details": "Transfers ownership of the contract to a new account (`newOwner`). Can only be called by the current owner."
      },
      "unpause()": {
        "details": "Called by a pauser to unpause, returns to normal state."
      }
    },
    "title": "WiBX Utility Token"
  },
  "userdoc": {
    "methods": {
      "amountToCleanBalance(uint256)": {
        "notice": "Considering a tax that will be applied over a value, what is the value to request as trasnfer amount and make the sender balance to be zero as resultant."
      },
      "simulateTaxValue(uint256)": {
        "notice": "Used to check the tax value that will be applied to a given amount."
      },
      "simulateTransferValue(uint256)": {
        "notice": "Used to check the total amount that will discounted from sender after applying the tax."
      },
      "taxRecipientAddr()": {
        "notice": "Returns the tax recipient account"
      }
    }
  }
}